{
  "_format": "hh-sol-artifact-1",
  "contractName": "ATM",
  "sourceName": "contracts/ATM.sol",
  "abi": [
    {
      "inputs": [],
      "stateMutability": "nonpayable",
      "type": "constructor"
    },
    {
      "inputs": [],
      "name": "InvalidOrder",
      "type": "error"
    },
    {
      "inputs": [],
      "name": "InvalidShortString",
      "type": "error"
    },
    {
      "inputs": [
        {
          "internalType": "address",
          "name": "creator",
          "type": "address"
        },
        {
          "internalType": "address",
          "name": "signer",
          "type": "address"
        }
      ],
      "name": "InvalidSigner",
      "type": "error"
    },
    {
      "inputs": [
        {
          "internalType": "bytes32",
          "name": "id",
          "type": "bytes32"
        }
      ],
      "name": "InvalidWithdraw",
      "type": "error"
    },
    {
      "inputs": [
        {
          "internalType": "bytes32",
          "name": "reservation",
          "type": "bytes32"
        }
      ],
      "name": "ReservationNotChanged",
      "type": "error"
    },
    {
      "inputs": [
        {
          "internalType": "bytes32",
          "name": "reservation",
          "type": "bytes32"
        }
      ],
      "name": "ReservationNotFound",
      "type": "error"
    },
    {
      "inputs": [
        {
          "internalType": "string",
          "name": "str",
          "type": "string"
        }
      ],
      "name": "StringTooLong",
      "type": "error"
    },
    {
      "inputs": [
        {
          "internalType": "bytes32",
          "name": "orderId",
          "type": "bytes32"
        },
        {
          "internalType": "bytes32",
          "name": "ticketId",
          "type": "bytes32"
        }
      ],
      "name": "TicketAlreadyClaimed",
      "type": "error"
    },
    {
      "inputs": [
        {
          "internalType": "bytes32",
          "name": "orderId",
          "type": "bytes32"
        },
        {
          "internalType": "bytes32",
          "name": "ticketId",
          "type": "bytes32"
        },
        {
          "internalType": "uint256",
          "name": "deadline",
          "type": "uint256"
        }
      ],
      "name": "TicketExpired",
      "type": "error"
    },
    {
      "inputs": [
        {
          "internalType": "bytes32",
          "name": "orderId",
          "type": "bytes32"
        },
        {
          "internalType": "bytes32",
          "name": "ticketId",
          "type": "bytes32"
        }
      ],
      "name": "TicketNotFound",
      "type": "error"
    },
    {
      "anonymous": false,
      "inputs": [],
      "name": "EIP712DomainChanged",
      "type": "event"
    },
    {
      "anonymous": false,
      "inputs": [
        {
          "indexed": true,
          "internalType": "bytes32",
          "name": "orderId",
          "type": "bytes32"
        },
        {
          "indexed": true,
          "internalType": "address",
          "name": "creator",
          "type": "address"
        },
        {
          "indexed": false,
          "internalType": "uint256",
          "name": "amount",
          "type": "uint256"
        }
      ],
      "name": "OrderClosed",
      "type": "event"
    },
    {
      "anonymous": false,
      "inputs": [
        {
          "indexed": true,
          "internalType": "bytes32",
          "name": "orderId",
          "type": "bytes32"
        },
        {
          "indexed": true,
          "internalType": "address",
          "name": "creator",
          "type": "address"
        },
        {
          "indexed": false,
          "internalType": "uint256",
          "name": "amount",
          "type": "uint256"
        },
        {
          "indexed": false,
          "internalType": "uint256",
          "name": "nbTickets",
          "type": "uint256"
        }
      ],
      "name": "OrderCreated",
      "type": "event"
    },
    {
      "anonymous": false,
      "inputs": [
        {
          "indexed": true,
          "internalType": "bytes32",
          "name": "ticketId",
          "type": "bytes32"
        },
        {
          "indexed": true,
          "internalType": "address",
          "name": "claimer",
          "type": "address"
        },
        {
          "indexed": false,
          "internalType": "uint256",
          "name": "amount",
          "type": "uint256"
        }
      ],
      "name": "StreamWithdrawn",
      "type": "event"
    },
    {
      "anonymous": false,
      "inputs": [
        {
          "indexed": true,
          "internalType": "bytes32",
          "name": "orderId",
          "type": "bytes32"
        },
        {
          "indexed": true,
          "internalType": "bytes32",
          "name": "ticketId",
          "type": "bytes32"
        },
        {
          "indexed": true,
          "internalType": "address",
          "name": "claimer",
          "type": "address"
        },
        {
          "indexed": false,
          "internalType": "uint256",
          "name": "amount",
          "type": "uint256"
        }
      ],
      "name": "TicketClaimed",
      "type": "event"
    },
    {
      "anonymous": false,
      "inputs": [
        {
          "indexed": true,
          "internalType": "address",
          "name": "claimer",
          "type": "address"
        },
        {
          "indexed": false,
          "internalType": "bytes32",
          "name": "reservation",
          "type": "bytes32"
        },
        {
          "indexed": false,
          "internalType": "uint256",
          "name": "timestamp",
          "type": "uint256"
        }
      ],
      "name": "TicketReserved",
      "type": "event"
    },
    {
      "inputs": [],
      "name": "DOMAIN_SEPARATOR",
      "outputs": [
        {
          "internalType": "bytes32",
          "name": "",
          "type": "bytes32"
        }
      ],
      "stateMutability": "view",
      "type": "function"
    },
    {
      "inputs": [],
      "name": "GHO",
      "outputs": [
        {
          "internalType": "contract ERC20Permit",
          "name": "",
          "type": "address"
        }
      ],
      "stateMutability": "view",
      "type": "function"
    },
    {
      "inputs": [],
      "name": "PERMIT_TICKET_TYPEHASH",
      "outputs": [
        {
          "internalType": "bytes32",
          "name": "",
          "type": "bytes32"
        }
      ],
      "stateMutability": "view",
      "type": "function"
    },
    {
      "inputs": [],
      "name": "SAFETY_DELAY",
      "outputs": [
        {
          "internalType": "uint256",
          "name": "",
          "type": "uint256"
        }
      ],
      "stateMutability": "view",
      "type": "function"
    },
    {
      "inputs": [
        {
          "components": [
            {
              "internalType": "bytes32",
              "name": "orderId",
              "type": "bytes32"
            },
            {
              "internalType": "bytes32",
              "name": "orderSecret",
              "type": "bytes32"
            },
            {
              "internalType": "bytes32",
              "name": "ticketSecret",
              "type": "bytes32"
            },
            {
              "components": [
                {
                  "internalType": "uint8",
                  "name": "v",
                  "type": "uint8"
                },
                {
                  "internalType": "bytes32",
                  "name": "r",
                  "type": "bytes32"
                },
                {
                  "internalType": "bytes32",
                  "name": "s",
                  "type": "bytes32"
                }
              ],
              "internalType": "struct ATM.Signature",
              "name": "signature",
              "type": "tuple"
            }
          ],
          "internalType": "struct ATM.Ticket",
          "name": "ticket",
          "type": "tuple"
        }
      ],
      "name": "claimTicket",
      "outputs": [],
      "stateMutability": "nonpayable",
      "type": "function"
    },
    {
      "inputs": [
        {
          "internalType": "bytes32",
          "name": "orderId",
          "type": "bytes32"
        }
      ],
      "name": "closeOrder",
      "outputs": [],
      "stateMutability": "nonpayable",
      "type": "function"
    },
    {
      "inputs": [
        {
          "internalType": "uint256",
          "name": "amount",
          "type": "uint256"
        },
        {
          "internalType": "uint256",
          "name": "deadline",
          "type": "uint256"
        },
        {
          "internalType": "uint8",
          "name": "streamed",
          "type": "uint8"
        },
        {
          "internalType": "bytes32[]",
          "name": "tickets",
          "type": "bytes32[]"
        },
        {
          "components": [
            {
              "internalType": "uint8",
              "name": "v",
              "type": "uint8"
            },
            {
              "internalType": "bytes32",
              "name": "r",
              "type": "bytes32"
            },
            {
              "internalType": "bytes32",
              "name": "s",
              "type": "bytes32"
            }
          ],
          "internalType": "struct ATM.Signature",
          "name": "signature",
          "type": "tuple"
        }
      ],
      "name": "createOrder",
      "outputs": [],
      "stateMutability": "nonpayable",
      "type": "function"
    },
    {
      "inputs": [],
      "name": "eip712Domain",
      "outputs": [
        {
          "internalType": "bytes1",
          "name": "fields",
          "type": "bytes1"
        },
        {
          "internalType": "string",
          "name": "name",
          "type": "string"
        },
        {
          "internalType": "string",
          "name": "version",
          "type": "string"
        },
        {
          "internalType": "uint256",
          "name": "chainId",
          "type": "uint256"
        },
        {
          "internalType": "address",
          "name": "verifyingContract",
          "type": "address"
        },
        {
          "internalType": "bytes32",
          "name": "salt",
          "type": "bytes32"
        },
        {
          "internalType": "uint256[]",
          "name": "extensions",
          "type": "uint256[]"
        }
      ],
      "stateMutability": "view",
      "type": "function"
    },
    {
      "inputs": [
        {
          "internalType": "address",
          "name": "addr",
          "type": "address"
        }
      ],
      "name": "getAccountNonce",
      "outputs": [
        {
          "internalType": "uint256",
          "name": "nonce",
          "type": "uint256"
        }
      ],
      "stateMutability": "view",
      "type": "function"
    },
    {
      "inputs": [],
      "name": "getBalanceAndDecimals",
      "outputs": [
        {
          "internalType": "uint256",
          "name": "",
          "type": "uint256"
        },
        {
          "internalType": "uint8",
          "name": "",
          "type": "uint8"
        }
      ],
      "stateMutability": "view",
      "type": "function"
    },
    {
      "inputs": [
        {
          "internalType": "bytes32",
          "name": "orderId",
          "type": "bytes32"
        }
      ],
      "name": "getOrder",
      "outputs": [
        {
          "components": [
            {
              "internalType": "bytes32",
              "name": "id",
              "type": "bytes32"
            },
            {
              "components": [
                {
                  "internalType": "address",
                  "name": "creator",
                  "type": "address"
                },
                {
                  "internalType": "uint256",
                  "name": "amount",
                  "type": "uint256"
                },
                {
                  "internalType": "uint256",
                  "name": "createdAt",
                  "type": "uint256"
                },
                {
                  "internalType": "uint256",
                  "name": "deadline",
                  "type": "uint256"
                },
                {
                  "internalType": "uint8",
                  "name": "streamed",
                  "type": "uint8"
                },
                {
                  "internalType": "uint8",
                  "name": "closed",
                  "type": "uint8"
                }
              ],
              "internalType": "struct ATM.Order",
              "name": "order",
              "type": "tuple"
            },
            {
              "internalType": "uint256",
              "name": "nbTickets",
              "type": "uint256"
            }
          ],
          "internalType": "struct ATM.OrderData",
          "name": "data",
          "type": "tuple"
        }
      ],
      "stateMutability": "view",
      "type": "function"
    },
    {
      "inputs": [
        {
          "internalType": "bytes32",
          "name": "orderId",
          "type": "bytes32"
        }
      ],
      "name": "getOrderFull",
      "outputs": [
        {
          "components": [
            {
              "components": [
                {
                  "internalType": "bytes32",
                  "name": "id",
                  "type": "bytes32"
                },
                {
                  "components": [
                    {
                      "internalType": "address",
                      "name": "creator",
                      "type": "address"
                    },
                    {
                      "internalType": "uint256",
                      "name": "amount",
                      "type": "uint256"
                    },
                    {
                      "internalType": "uint256",
                      "name": "createdAt",
                      "type": "uint256"
                    },
                    {
                      "internalType": "uint256",
                      "name": "deadline",
                      "type": "uint256"
                    },
                    {
                      "internalType": "uint8",
                      "name": "streamed",
                      "type": "uint8"
                    },
                    {
                      "internalType": "uint8",
                      "name": "closed",
                      "type": "uint8"
                    }
                  ],
                  "internalType": "struct ATM.Order",
                  "name": "order",
                  "type": "tuple"
                },
                {
                  "internalType": "uint256",
                  "name": "nbTickets",
                  "type": "uint256"
                }
              ],
              "internalType": "struct ATM.OrderData",
              "name": "order",
              "type": "tuple"
            },
            {
              "components": [
                {
                  "internalType": "bytes32[]",
                  "name": "ticketIds",
                  "type": "bytes32[]"
                },
                {
                  "internalType": "address[]",
                  "name": "claimers",
                  "type": "address[]"
                }
              ],
              "internalType": "struct ATM.StatusData",
              "name": "status",
              "type": "tuple"
            }
          ],
          "internalType": "struct ATM.OrderFullData",
          "name": "data",
          "type": "tuple"
        }
      ],
      "stateMutability": "view",
      "type": "function"
    },
    {
      "inputs": [
        {
          "internalType": "bytes32",
          "name": "orderId",
          "type": "bytes32"
        }
      ],
      "name": "getStatus",
      "outputs": [
        {
          "components": [
            {
              "internalType": "bytes32[]",
              "name": "ticketIds",
              "type": "bytes32[]"
            },
            {
              "internalType": "address[]",
              "name": "claimers",
              "type": "address[]"
            }
          ],
          "internalType": "struct ATM.StatusData",
          "name": "data",
          "type": "tuple"
        }
      ],
      "stateMutability": "view",
      "type": "function"
    },
    {
      "inputs": [
        {
          "internalType": "bytes32",
          "name": "ticketId",
          "type": "bytes32"
        }
      ],
      "name": "getTicket",
      "outputs": [
        {
          "components": [
            {
              "internalType": "bytes32",
              "name": "id",
              "type": "bytes32"
            },
            {
              "internalType": "address",
              "name": "claimer",
              "type": "address"
            },
            {
              "internalType": "uint256",
              "name": "amount",
              "type": "uint256"
            },
            {
              "components": [
                {
                  "internalType": "bytes32",
                  "name": "id",
                  "type": "bytes32"
                },
                {
                  "components": [
                    {
                      "internalType": "address",
                      "name": "creator",
                      "type": "address"
                    },
                    {
                      "internalType": "uint256",
                      "name": "amount",
                      "type": "uint256"
                    },
                    {
                      "internalType": "uint256",
                      "name": "createdAt",
                      "type": "uint256"
                    },
                    {
                      "internalType": "uint256",
                      "name": "deadline",
                      "type": "uint256"
                    },
                    {
                      "internalType": "uint8",
                      "name": "streamed",
                      "type": "uint8"
                    },
                    {
                      "internalType": "uint8",
                      "name": "closed",
                      "type": "uint8"
                    }
                  ],
                  "internalType": "struct ATM.Order",
                  "name": "order",
                  "type": "tuple"
                },
                {
                  "internalType": "uint256",
                  "name": "nbTickets",
                  "type": "uint256"
                }
              ],
              "internalType": "struct ATM.OrderData",
              "name": "order",
              "type": "tuple"
            }
          ],
          "internalType": "struct ATM.TicketData",
          "name": "data",
          "type": "tuple"
        }
      ],
      "stateMutability": "view",
      "type": "function"
    },
    {
      "inputs": [
        {
          "internalType": "bytes32",
          "name": "ticketId",
          "type": "bytes32"
        }
      ],
      "name": "isClaimed",
      "outputs": [
        {
          "internalType": "bool",
          "name": "",
          "type": "bool"
        }
      ],
      "stateMutability": "view",
      "type": "function"
    },
    {
      "inputs": [
        {
          "components": [
            {
              "internalType": "bytes32",
              "name": "orderId",
              "type": "bytes32"
            },
            {
              "internalType": "bytes32",
              "name": "orderSecret",
              "type": "bytes32"
            },
            {
              "internalType": "bytes32",
              "name": "ticketSecret",
              "type": "bytes32"
            },
            {
              "components": [
                {
                  "internalType": "uint8",
                  "name": "v",
                  "type": "uint8"
                },
                {
                  "internalType": "bytes32",
                  "name": "r",
                  "type": "bytes32"
                },
                {
                  "internalType": "bytes32",
                  "name": "s",
                  "type": "bytes32"
                }
              ],
              "internalType": "struct ATM.Signature",
              "name": "signature",
              "type": "tuple"
            }
          ],
          "internalType": "struct ATM.Ticket",
          "name": "ticket",
          "type": "tuple"
        }
      ],
      "name": "isValid",
      "outputs": [
        {
          "internalType": "bytes32",
          "name": "ticketId",
          "type": "bytes32"
        },
        {
          "internalType": "uint256",
          "name": "amount",
          "type": "uint256"
        },
        {
          "internalType": "uint8",
          "name": "streamed",
          "type": "uint8"
        }
      ],
      "stateMutability": "view",
      "type": "function"
    },
    {
      "inputs": [
        {
          "internalType": "bytes32",
          "name": "reservation",
          "type": "bytes32"
        }
      ],
      "name": "reserveTicket",
      "outputs": [],
      "stateMutability": "nonpayable",
      "type": "function"
    },
    {
      "inputs": [
        {
          "internalType": "bytes32",
          "name": "ticketId",
          "type": "bytes32"
        }
      ],
      "name": "withdrawStream",
      "outputs": [],
      "stateMutability": "nonpayable",
      "type": "function"
    }
  ],
  "bytecode": "0x61016060405234801562000011575f80fd5b50604080518082018252600381526241544d60e81b60208083019190915282518084019093526005835264616c70686160d81b908301529062000055825f62000102565b610120526200006681600162000102565b61014052815160208084019190912060e052815190820120610100524660a052620000f360e05161010051604080517f8b73c3c69bb8fe3d512ecc4cf759cc79239f7b179b0ffacaa9a75d522b39400f60208201529081019290925260608201524660808201523060a08201525f9060c00160405160208183030381529060405280519060200120905090565b60805250503060c05262000361565b5f602083511015620001215762000119836200013a565b905062000134565b816200012e848262000223565b5060ff90505b92915050565b5f80829050601f8151111562000170578260405163305a27a960e01b8152600401620001679190620002ef565b60405180910390fd5b80516200017d826200033d565b179392505050565b634e487b7160e01b5f52604160045260245ffd5b600181811c90821680620001ae57607f821691505b602082108103620001cd57634e487b7160e01b5f52602260045260245ffd5b50919050565b601f8211156200021e57805f5260205f20601f840160051c81016020851015620001fa5750805b601f840160051c820191505b818110156200021b575f815560010162000206565b50505b505050565b81516001600160401b038111156200023f576200023f62000185565b620002578162000250845462000199565b84620001d3565b602080601f8311600181146200028d575f8415620002755750858301515b5f19600386901b1c1916600185901b178555620002e7565b5f85815260208120601f198616915b82811015620002bd578886015182559484019460019091019084016200029c565b5085821015620002db57878501515f19600388901b60f8161c191681555b505060018460011b0185555b505050505050565b5f602080835283518060208501525f5b818110156200031d57858101830151858201604001528201620002ff565b505f604082860101526040601f19601f8301168501019250505092915050565b80516020808301519190811015620001cd575f1960209190910360031b1b16919050565b60805160a05160c05160e05161010051610120516101405161219b620003b35f395f61145f01525f61143301525f6113ba01525f61139201525f6112ed01525f61131701525f611341015261219b5ff3fe608060405234801561000f575f80fd5b506004361061012f575f3560e01c8063ae41ebad116100ad578063b8d008f31161007d578063d5d863e311610063578063d5d863e31461030f578063e503516f1461032f578063fc8be69914610342575f80fd5b8063b8d008f3146102b4578063d126199f146102e7575f80fd5b8063ae41ebad14610218578063afcca0fb1461022b578063b83a63ba1461025c578063b89c395214610283575f80fd5b80633bed6b95116101025780635778472a116100e85780635778472a146101bd5780635de28ae0146101dd57806384b0196e146101fd575f80fd5b80633bed6b95146101a25780633eb26e36146101b5575f80fd5b80630b5676d2146101335780630b8033391461014857806323fcabca1461016c5780633644e5151461018c575b5f80fd5b610146610141366004611b14565b610355565b005b6101506103f1565b6040805192835260ff9091166020830152015b60405180910390f35b61017f61017a366004611b14565b610508565b6040516101639190611bb7565b61019461052e565b604051908152602001610163565b6101466101b0366004611b14565b61053c565b610194603c81565b6101d06101cb366004611b14565b610790565b6040516101639190611c48565b6101f06101eb366004611b14565b61086f565b6040516101639190611cb2565b61020561097e565b6040516101639796959493929190611d07565b610146610226366004611e14565b6109dc565b61023e610239366004611ebc565b610b3f565b60408051938452602084019290925260ff1690820152606001610163565b6101947fc9569bc389629bd63269af73dda8915116ce58858c48577079dbd2a8050711fd81565b6102a4610291366004611b14565b5f90815260076020526040902054151590565b6040519015158152602001610163565b6102cf73c4bf5cbdabe595361438f8c6a187bdc330539c6081565b6040516001600160a01b039091168152602001610163565b6101946102f5366004611ecc565b6001600160a01b03165f9081526002602052604090205490565b61032261031d366004611b14565b610b66565b6040516101639190611ef2565b61014661033d366004611f9f565b610c40565b610146610350366004611b14565b611016565b5f81815260066020526040902054156103a2576040517fe26b6c3a000000000000000000000000000000000000000000000000000000008152600481018290526024015b60405180910390fd5b5f81815260066020908152604091829020429081905582518481529182015233917fc2e6e791274f4ca6517553570472956264bb5d03c9b67ea9b0ccd1e3aed81c41910160405180910390a250565b5f8073c4bf5cbdabe595361438f8c6a187bdc330539c606370a08231336040517fffffffff0000000000000000000000000000000000000000000000000000000060e084901b1681526001600160a01b039091166004820152602401602060405180830381865afa158015610468573d5f803e3d5ffd5b505050506040513d601f19601f8201168201806040525081019061048c9190612043565b73c4bf5cbdabe595361438f8c6a187bdc330539c606001600160a01b031663313ce5676040518163ffffffff1660e01b8152600401602060405180830381865afa1580156104dc573d5f803e3d5ffd5b505050506040513d601f19601f82011682018060405250810190610500919061205a565b915091509091565b610510611aa0565b61051982610790565b81526105248261086f565b6020820152919050565b5f6105376112e1565b905090565b5f81815260046020818152604092839020835160c08101855281546001600160a01b0316808252600183015493820193909352600282015494810194909452600381015460608501529091015460ff80821660808501526101009091041660a0830152339190821415806105b35750428160600151115b806105c457505f8160a0015160ff16115b156105e557604051630aa881a960e11b815260048101849052602401610399565b5f8381526005602052604081206105fb9061140a565b90505f805b825181101561065e575f801b60075f85848151811061062157610621612075565b602002602001015181526020019081526020015f205f015411610645576001610647565b5f5b6106549060ff168361209d565b9150600101610600565b505f81846020015161067091906120b0565b9050801561076c575f868152600460208190526040918290208101805461ff001916610100179055905163a9059cbb60e01b815273c4bf5cbdabe595361438f8c6a187bdc330539c609163a9059cbb916106e29189918691016001600160a01b03929092168252602082015260400190565b6020604051808303815f875af11580156106fe573d5f803e3d5ffd5b505050506040513d601f19601f8201168201806040525081019061072291906120cf565b50846001600160a01b0316867f0e0cd4d3eaa4898e1ec8edbb7adc18a8fd52571f73419fff122e9d517360eaa18360405161075f91815260200190565b60405180910390a3610788565b604051630aa881a960e11b815260048101879052602401610399565b505050505050565b6107de60408051606080820183525f808352835160c08101855281815260208181018390529481018290529182018190526080820181905260a0820152909182019081526020015f81525090565b60408051606080820183528482525f85815260046020818152858320865160c08101885281546001600160a01b031681526001820154818401526002820154818901526003820154958101959095529091015460ff80821660808601526101009091041660a084015280840192909252858152600590915282902090918201906108679061141d565b905292915050565b60408051808201909152606080825260208201525f8281526005602052604090206108999061140a565b8082525167ffffffffffffffff8111156108b5576108b5611dba565b6040519080825280602002602001820160405280156108de578160200160208202803683370190505b5060208201525f5b815151811015610978575f60075f845f0151848151811061090957610909612075565b60209081029190910181015182528101919091526040015f20600101546001600160a01b03169050801561096f57808360200151838151811061094e5761094e612075565b60200260200101906001600160a01b031690816001600160a01b0316815250505b506001016108e6565b50919050565b5f6060805f805f606061098f61142c565b610997611458565b604080515f808252602082019092527f0f000000000000000000000000000000000000000000000000000000000000009b939a50919850469750309650945092509050565b335f80806109e985611485565b604080518082018252895181526001600160a01b0389811660208084018281525f89815260078352868120955186559051600190950180547fffffffffffffffffffffffff0000000000000000000000000000000000000000169590941694909417909255825260039052209295509093509150610a67908461186c565b508060ff165f03610af65760405163a9059cbb60e01b81526001600160a01b03851660048201526024810183905273c4bf5cbdabe595361438f8c6a187bdc330539c609063a9059cbb906044016020604051808303815f875af1158015610ad0573d5f803e3d5ffd5b505050506040513d601f19601f82011682018060405250810190610af491906120cf565b505b84516040518381526001600160a01b0386169185917fdbaf21cad9ab5b3678c5ec10ae109afd74acb5208ff47f562d77eb09183eeb039060200160405180910390a45050505050565b5f8080610b59610b5436869003860186611e14565b611485565b9250925092509193909250565b610bcf60408051608080820183525f8083526020808401829052838501829052845160608181018752838252865160c08101885284815280840185905280880185905280820185905294850184905260a085018490529181019390935293820152909182015290565b5f82815260076020908152604091829020825180840190935280548352600101546001600160a01b039081168383019081528585525116908301528051610c1590610790565b60608301819052604081015160209182015190910151610c3591906120b0565b604083015250919050565b851580610c4d5750428511155b80610c5b575060018460ff16115b80610c64575081155b15610c9b576040517faf61069300000000000000000000000000000000000000000000000000000000815260040160405180910390fd5b3373c4bf5cbdabe595361438f8c6a187bdc330539c6063d505accf82308a8a610cc760208901896120ee565b604080517fffffffff0000000000000000000000000000000000000000000000000000000060e089901b1681526001600160a01b0396871660048201529590941660248601526044850192909252606484015260ff166084830152602086013560a483015285013560c482015260e4015f604051808303815f87803b158015610d4e575f80fd5b505af1158015610d60573d5f803e3d5ffd5b50506040517f23b872dd0000000000000000000000000000000000000000000000000000000081526001600160a01b0384166004820152306024820152604481018a905273c4bf5cbdabe595361438f8c6a187bdc330539c6092506323b872dd91506064016020604051808303815f875af1158015610de1573d5f803e3d5ffd5b505050506040513d601f19601f82011682018060405250810190610e0591906120cf565b506001600160a01b0381165f9081526002602090815260408083205490516bffffffffffffffffffffffff19606086901b1692810192909252603482018190529190605401604051602081830303815290604052805190602001209050816001610e6f919061209d565b60025f856001600160a01b03166001600160a01b031681526020019081526020015f205f01819055506040518060c00160405280846001600160a01b031681526020018a81526020014281526020018981526020018860ff1681526020015f60ff1681525060045f8381526020019081526020015f205f820151815f015f6101000a8154816001600160a01b0302191690836001600160a01b031602179055506020820151816001015560408201518160020155606082015181600301556080820151816004015f6101000a81548160ff021916908360ff16021790555060a08201518160040160016101000a81548160ff021916908360ff1602179055509050505f60055f8381526020019081526020015f2090505f5b86811015610fc357610fba888883818110610fa457610fa4612075565b905060200201358361186c90919063ffffffff16565b50600101610f87565b50604080518b8152602081018890526001600160a01b0386169184917fca21890c07259113ea29255a6bdb21ca5e46cdf0bc0222904d499136922dd030910160405180910390a350505050505050505050565b5f81815260076020908152604091829020825180840190935280548352600101546001600160a01b0316908201819052339190821461106b57604051630aa881a960e11b815260048101849052602401610399565b80515f908152600460208181526040808420815160c08101835281546001600160a01b03168152600182015493810193909352600281015491830191909152600381015460608301529091015460ff808216608084018190526101009092041660a08301529091036110f357604051630aa881a960e11b815260048101859052602401610399565b81515f90815260056020526040812061110b9061141d565b826020015161111a91906120b0565b6001600160a01b0385165f9081526002602090815260408083208984526001019091528120546060850151929350914211156111615761115a8284612109565b90506111b0565b5f8460400151426111729190612109565b90505f856040015186606001516111899190612109565b90508381611197848861211c565b6111a191906120b0565b6111ab9190612109565b925050505b80156112bc576001600160a01b0386165f9081526002602090815260408083208a8452600101909152812080548392906111eb90849061209d565b909155505060405163a9059cbb60e01b81526001600160a01b03871660048201526024810182905273c4bf5cbdabe595361438f8c6a187bdc330539c609063a9059cbb906044016020604051808303815f875af115801561124e573d5f803e3d5ffd5b505050506040513d601f19601f8201168201806040525081019061127291906120cf565b50856001600160a01b0316877f76c3b0b8c255c4c2c7372a000da81ba4dc24fe01e03ed15aad8ccd9bd0479262836040516112af91815260200190565b60405180910390a36112d8565b604051630aa881a960e11b815260048101889052602401610399565b50505050505050565b5f306001600160a01b037f00000000000000000000000000000000000000000000000000000000000000001614801561133957507f000000000000000000000000000000000000000000000000000000000000000046145b1561136357507f000000000000000000000000000000000000000000000000000000000000000090565b610537604080517f8b73c3c69bb8fe3d512ecc4cf759cc79239f7b179b0ffacaa9a75d522b39400f60208201527f0000000000000000000000000000000000000000000000000000000000000000918101919091527f000000000000000000000000000000000000000000000000000000000000000060608201524660808201523060a08201525f9060c00160405160208183030381529060405280519060200120905090565b60605f61141683611877565b9392505050565b5f611426825490565b92915050565b60606105377f00000000000000000000000000000000000000000000000000000000000000005f6118d0565b60606105377f000000000000000000000000000000000000000000000000000000000000000060016118d0565b5f8080803360208087015160408089015190516114c894930160609390931b6bffffffffffffffffffffffff191683526014830191909152603482015260540190565b60408051601f1981840301815291815281516020928301205f81815260069093529120549091508015806115055750611502603c8261209d565b42105b1561153f576040517f4f31f9ad00000000000000000000000000000000000000000000000000000000815260048101839052602401610399565b60208087015160408089015190516115609301918252602082015260400190565b60408051601f19818403018152918152815160209283012088515f908152600590935291209095506115928187611979565b6115d55786516040517f3e0266b8000000000000000000000000000000000000000000000000000000008152600481019190915260248101879052604401610399565b5f86815260076020526040902054156116275786516040517fac77c46c000000000000000000000000000000000000000000000000000000008152600481019190915260248101879052604401610399565b86515f90815260046020818152604092839020835160c08101855281546001600160a01b03168152600182015492810192909252600281015493820193909352600383015460608201819052929091015460ff80821660808401526101009091041660a0820152904211156116df57875160608201516040517fdf9c7e250000000000000000000000000000000000000000000000000000000081526004810192909252602482018990526044820152606401610399565b80516020808301518a518b830151604080517fc9569bc389629bd63269af73dda8915116ce58858c48577079dbd2a8050711fd9581019590955246908501526001600160a01b039094166060840152608083019190915260a082015260c08101919091525f9060019061176a9060e00160405160208183030381529060405280519060200120611990565b60608b0151805160208083015160409384015184515f8152909201938490526117af949390919093845260ff9290921660208401526040830152606082015260800190565b6020604051602081039080840390855afa1580156117cf573d5f803e3d5ffd5b505050602060405103519050815f01516001600160a01b0316816001600160a01b03161461183f5781516040517f7ba5ffb50000000000000000000000000000000000000000000000000000000081526001600160a01b0391821660048201529082166024820152604401610399565b6118488361141d565b826020015161185791906120b0565b96508160800151955050505050509193909250565b5f61141683836119d7565b6060815f018054806020026020016040519081016040528092919081815260200182805480156118c457602002820191905f5260205f20905b8154815260200190600101908083116118b0575b50505050509050919050565b606060ff83146118ea576118e383611a23565b9050611426565b8180546118f690612133565b80601f016020809104026020016040519081016040528092919081815260200182805461192290612133565b801561196d5780601f106119445761010080835404028352916020019161196d565b820191905f5260205f20905b81548152906001019060200180831161195057829003601f168201915b50505050509050611426565b5f8181526001830160205260408120541515611416565b5f61142661199c6112e1565b836040517f19010000000000000000000000000000000000000000000000000000000000008152600281019290925260228201526042902090565b5f818152600183016020526040812054611a1c57508154600181810184555f848152602080822090930184905584548482528286019093526040902091909155611426565b505f611426565b60605f611a2f83611a60565b6040805160208082528183019092529192505f91906020820181803683375050509182525060208101929092525090565b5f60ff8216601f811115611426576040517fb3512b0c00000000000000000000000000000000000000000000000000000000815260040160405180910390fd5b6040805160a080820183525f828401818152845160c0810186528281526020810183905294850182905260608581018390526080808701849052938601839052840194909452908201529081908152602001611b0f604051806040016040528060608152602001606081525090565b905290565b5f60208284031215611b24575f80fd5b5035919050565b8051604080845281519084018190525f91602091908201906060860190845b81811015611b6657835183529284019291840191600101611b4a565b50508483015186820387850152805180835290840192505f918401905b80831015611bac5783516001600160a01b03168252928401926001929092019190840190611b83565b509695505050505050565b60208152611c246020820183518051825260208101516001600160a01b03815116602084015260208101516040840152604081015160608401526060810151608084015260ff60808201511660a084015260ff60a08201511660c084015250604081015160e08301525050565b6020820151610120828101525f90611c40610140840182611b2b565b949350505050565b610100810161142682848051825260208101516001600160a01b03815116602084015260208101516040840152604081015160608401526060810151608084015260ff60808201511660a084015260ff60a08201511660c084015250604081015160e08301525050565b602081525f6114166020830184611b2b565b5f81518084525f5b81811015611ce857602081850181015186830182015201611ccc565b505f602082860101526020601f19601f83011685010191505092915050565b7fff00000000000000000000000000000000000000000000000000000000000000881681525f602060e06020840152611d4360e084018a611cc4565b8381036040850152611d55818a611cc4565b606085018990526001600160a01b038816608086015260a0850187905284810360c0860152855180825260208088019350909101905f5b81811015611da857835183529284019291840191600101611d8c565b50909c9b505050505050505050505050565b634e487b7160e01b5f52604160045260245ffd5b6040516060810167ffffffffffffffff81118282101715611dfd57634e487b7160e01b5f52604160045260245ffd5b60405290565b60ff81168114611e11575f80fd5b50565b5f81830360c0811215611e25575f80fd5b6040516080810181811067ffffffffffffffff82111715611e5457634e487b7160e01b5f52604160045260245ffd5b80604052508335815260208401356020820152604084013560408201526060605f1983011215611e82575f80fd5b611e8a611dce565b91506060840135611e9a81611e03565b82526080840135602083015260a0909301356040820152606083015250919050565b5f60c08284031215610978575f80fd5b5f60208284031215611edc575f80fd5b81356001600160a01b0381168114611416575f80fd5b5f61016082019050825182526001600160a01b036020840151166020830152604083015160408301526060830151611f8860608401828051825260208101516001600160a01b03815116602084015260208101516040840152604081015160608401526060810151608084015260ff60808201511660a084015260ff60a08201511660c084015250604081015160e08301525050565b5092915050565b5f60608284031215610978575f80fd5b5f805f805f8060e08789031215611fb4575f80fd5b86359550602087013594506040870135611fcd81611e03565b9350606087013567ffffffffffffffff80821115611fe9575f80fd5b818901915089601f830112611ffc575f80fd5b81358181111561200a575f80fd5b8a60208260051b850101111561201e575f80fd5b6020830195508094505050506120378860808901611f8f565b90509295509295509295565b5f60208284031215612053575f80fd5b5051919050565b5f6020828403121561206a575f80fd5b815161141681611e03565b634e487b7160e01b5f52603260045260245ffd5b634e487b7160e01b5f52601160045260245ffd5b8082018082111561142657611426612089565b5f826120ca57634e487b7160e01b5f52601260045260245ffd5b500490565b5f602082840312156120df575f80fd5b81518015158114611416575f80fd5b5f602082840312156120fe575f80fd5b813561141681611e03565b8181038181111561142657611426612089565b808202811582820484141761142657611426612089565b600181811c9082168061214757607f821691505b60208210810361097857634e487b7160e01b5f52602260045260245ffdfea264697066735822122036af1031622e996d70b7db3db71ef61f35252ceb9c94eaffcb5925695fc1edf764736f6c63430008170033",
  "linkReferences": {},
  "deployedLinkReferences": {}
}