{
  "_format": "hh-sol-artifact-1",
  "contractName": "GhoTicket",
  "sourceName": "contracts/GhoTicket.sol",
  "abi": [
    {
      "inputs": [],
      "stateMutability": "nonpayable",
      "type": "constructor"
    },
    {
      "inputs": [],
      "name": "InvalidOrder",
      "type": "error"
    },
    {
      "inputs": [],
      "name": "InvalidShortString",
      "type": "error"
    },
    {
      "inputs": [
        {
          "internalType": "address",
          "name": "creator",
          "type": "address"
        },
        {
          "internalType": "address",
          "name": "signer",
          "type": "address"
        }
      ],
      "name": "InvalidSigner",
      "type": "error"
    },
    {
      "inputs": [
        {
          "internalType": "bytes32",
          "name": "id",
          "type": "bytes32"
        }
      ],
      "name": "InvalidWithdraw",
      "type": "error"
    },
    {
      "inputs": [
        {
          "internalType": "bytes32",
          "name": "reservation",
          "type": "bytes32"
        }
      ],
      "name": "ReservationNotChanged",
      "type": "error"
    },
    {
      "inputs": [
        {
          "internalType": "bytes32",
          "name": "reservation",
          "type": "bytes32"
        }
      ],
      "name": "ReservationNotFound",
      "type": "error"
    },
    {
      "inputs": [
        {
          "internalType": "string",
          "name": "str",
          "type": "string"
        }
      ],
      "name": "StringTooLong",
      "type": "error"
    },
    {
      "inputs": [
        {
          "internalType": "bytes32",
          "name": "orderId",
          "type": "bytes32"
        },
        {
          "internalType": "bytes32",
          "name": "ticketId",
          "type": "bytes32"
        }
      ],
      "name": "TicketAlreadyClaimed",
      "type": "error"
    },
    {
      "inputs": [
        {
          "internalType": "bytes32",
          "name": "orderId",
          "type": "bytes32"
        },
        {
          "internalType": "bytes32",
          "name": "ticketId",
          "type": "bytes32"
        },
        {
          "internalType": "uint256",
          "name": "deadline",
          "type": "uint256"
        }
      ],
      "name": "TicketExpired",
      "type": "error"
    },
    {
      "inputs": [
        {
          "internalType": "bytes32",
          "name": "orderId",
          "type": "bytes32"
        },
        {
          "internalType": "bytes32",
          "name": "ticketId",
          "type": "bytes32"
        }
      ],
      "name": "TicketNotFound",
      "type": "error"
    },
    {
      "anonymous": false,
      "inputs": [],
      "name": "EIP712DomainChanged",
      "type": "event"
    },
    {
      "anonymous": false,
      "inputs": [
        {
          "indexed": true,
          "internalType": "bytes32",
          "name": "orderId",
          "type": "bytes32"
        },
        {
          "indexed": true,
          "internalType": "address",
          "name": "creator",
          "type": "address"
        },
        {
          "indexed": false,
          "internalType": "uint256",
          "name": "amount",
          "type": "uint256"
        }
      ],
      "name": "OrderClosed",
      "type": "event"
    },
    {
      "anonymous": false,
      "inputs": [
        {
          "indexed": true,
          "internalType": "bytes32",
          "name": "orderId",
          "type": "bytes32"
        },
        {
          "indexed": true,
          "internalType": "address",
          "name": "creator",
          "type": "address"
        },
        {
          "indexed": false,
          "internalType": "uint256",
          "name": "amount",
          "type": "uint256"
        },
        {
          "indexed": false,
          "internalType": "uint256",
          "name": "nbTickets",
          "type": "uint256"
        }
      ],
      "name": "OrderCreated",
      "type": "event"
    },
    {
      "anonymous": false,
      "inputs": [
        {
          "indexed": true,
          "internalType": "bytes32",
          "name": "ticketId",
          "type": "bytes32"
        },
        {
          "indexed": true,
          "internalType": "address",
          "name": "claimer",
          "type": "address"
        },
        {
          "indexed": false,
          "internalType": "uint256",
          "name": "amount",
          "type": "uint256"
        }
      ],
      "name": "StreamWithdrawn",
      "type": "event"
    },
    {
      "anonymous": false,
      "inputs": [
        {
          "indexed": true,
          "internalType": "bytes32",
          "name": "orderId",
          "type": "bytes32"
        },
        {
          "indexed": true,
          "internalType": "bytes32",
          "name": "ticketId",
          "type": "bytes32"
        },
        {
          "indexed": true,
          "internalType": "address",
          "name": "claimer",
          "type": "address"
        },
        {
          "indexed": false,
          "internalType": "uint256",
          "name": "amount",
          "type": "uint256"
        }
      ],
      "name": "TicketClaimed",
      "type": "event"
    },
    {
      "anonymous": false,
      "inputs": [
        {
          "indexed": true,
          "internalType": "address",
          "name": "claimer",
          "type": "address"
        },
        {
          "indexed": false,
          "internalType": "bytes32",
          "name": "reservation",
          "type": "bytes32"
        },
        {
          "indexed": false,
          "internalType": "uint256",
          "name": "unlock",
          "type": "uint256"
        }
      ],
      "name": "TicketReserved",
      "type": "event"
    },
    {
      "inputs": [],
      "name": "DOMAIN_SEPARATOR",
      "outputs": [
        {
          "internalType": "bytes32",
          "name": "",
          "type": "bytes32"
        }
      ],
      "stateMutability": "view",
      "type": "function"
    },
    {
      "inputs": [],
      "name": "GHO",
      "outputs": [
        {
          "internalType": "contract ERC20Permit",
          "name": "",
          "type": "address"
        }
      ],
      "stateMutability": "view",
      "type": "function"
    },
    {
      "inputs": [],
      "name": "PERMIT_TICKET_TYPEHASH",
      "outputs": [
        {
          "internalType": "bytes32",
          "name": "",
          "type": "bytes32"
        }
      ],
      "stateMutability": "view",
      "type": "function"
    },
    {
      "inputs": [],
      "name": "SAFETY_DELAY",
      "outputs": [
        {
          "internalType": "uint256",
          "name": "",
          "type": "uint256"
        }
      ],
      "stateMutability": "view",
      "type": "function"
    },
    {
      "inputs": [
        {
          "components": [
            {
              "internalType": "bytes32",
              "name": "orderId",
              "type": "bytes32"
            },
            {
              "internalType": "bytes32",
              "name": "orderSecret",
              "type": "bytes32"
            },
            {
              "internalType": "bytes32",
              "name": "ticketSecret",
              "type": "bytes32"
            },
            {
              "components": [
                {
                  "internalType": "uint8",
                  "name": "v",
                  "type": "uint8"
                },
                {
                  "internalType": "bytes32",
                  "name": "r",
                  "type": "bytes32"
                },
                {
                  "internalType": "bytes32",
                  "name": "s",
                  "type": "bytes32"
                }
              ],
              "internalType": "struct GhoTicket.Signature",
              "name": "signature",
              "type": "tuple"
            }
          ],
          "internalType": "struct GhoTicket.Ticket",
          "name": "ticket",
          "type": "tuple"
        }
      ],
      "name": "claimTicket",
      "outputs": [],
      "stateMutability": "nonpayable",
      "type": "function"
    },
    {
      "inputs": [
        {
          "internalType": "bytes32",
          "name": "orderId",
          "type": "bytes32"
        }
      ],
      "name": "closeOrder",
      "outputs": [],
      "stateMutability": "nonpayable",
      "type": "function"
    },
    {
      "inputs": [
        {
          "internalType": "uint256",
          "name": "amount",
          "type": "uint256"
        },
        {
          "internalType": "uint256",
          "name": "deadline",
          "type": "uint256"
        },
        {
          "internalType": "uint8",
          "name": "streamed",
          "type": "uint8"
        },
        {
          "internalType": "bytes32[]",
          "name": "tickets",
          "type": "bytes32[]"
        },
        {
          "components": [
            {
              "internalType": "uint8",
              "name": "v",
              "type": "uint8"
            },
            {
              "internalType": "bytes32",
              "name": "r",
              "type": "bytes32"
            },
            {
              "internalType": "bytes32",
              "name": "s",
              "type": "bytes32"
            }
          ],
          "internalType": "struct GhoTicket.Signature",
          "name": "signature",
          "type": "tuple"
        }
      ],
      "name": "createOrder",
      "outputs": [],
      "stateMutability": "nonpayable",
      "type": "function"
    },
    {
      "inputs": [],
      "name": "eip712Domain",
      "outputs": [
        {
          "internalType": "bytes1",
          "name": "fields",
          "type": "bytes1"
        },
        {
          "internalType": "string",
          "name": "name",
          "type": "string"
        },
        {
          "internalType": "string",
          "name": "version",
          "type": "string"
        },
        {
          "internalType": "uint256",
          "name": "chainId",
          "type": "uint256"
        },
        {
          "internalType": "address",
          "name": "verifyingContract",
          "type": "address"
        },
        {
          "internalType": "bytes32",
          "name": "salt",
          "type": "bytes32"
        },
        {
          "internalType": "uint256[]",
          "name": "extensions",
          "type": "uint256[]"
        }
      ],
      "stateMutability": "view",
      "type": "function"
    },
    {
      "inputs": [
        {
          "internalType": "address",
          "name": "addr",
          "type": "address"
        }
      ],
      "name": "getAccountNonce",
      "outputs": [
        {
          "internalType": "uint256",
          "name": "nonce",
          "type": "uint256"
        }
      ],
      "stateMutability": "view",
      "type": "function"
    },
    {
      "inputs": [
        {
          "internalType": "address",
          "name": "claimer",
          "type": "address"
        },
        {
          "internalType": "uint256",
          "name": "start",
          "type": "uint256"
        },
        {
          "internalType": "uint256",
          "name": "size",
          "type": "uint256"
        }
      ],
      "name": "getClaims",
      "outputs": [
        {
          "internalType": "bytes32[]",
          "name": "data",
          "type": "bytes32[]"
        }
      ],
      "stateMutability": "view",
      "type": "function"
    },
    {
      "inputs": [
        {
          "internalType": "address",
          "name": "claimer",
          "type": "address"
        },
        {
          "internalType": "uint256",
          "name": "start",
          "type": "uint256"
        },
        {
          "internalType": "uint256",
          "name": "size",
          "type": "uint256"
        }
      ],
      "name": "getFullClaims",
      "outputs": [
        {
          "components": [
            {
              "internalType": "bytes32",
              "name": "id",
              "type": "bytes32"
            },
            {
              "internalType": "address",
              "name": "claimer",
              "type": "address"
            },
            {
              "internalType": "uint256",
              "name": "amount",
              "type": "uint256"
            },
            {
              "components": [
                {
                  "internalType": "bytes32",
                  "name": "id",
                  "type": "bytes32"
                },
                {
                  "components": [
                    {
                      "internalType": "address",
                      "name": "creator",
                      "type": "address"
                    },
                    {
                      "internalType": "uint256",
                      "name": "amount",
                      "type": "uint256"
                    },
                    {
                      "internalType": "uint256",
                      "name": "createdAt",
                      "type": "uint256"
                    },
                    {
                      "internalType": "uint256",
                      "name": "deadline",
                      "type": "uint256"
                    },
                    {
                      "internalType": "uint8",
                      "name": "streamed",
                      "type": "uint8"
                    },
                    {
                      "internalType": "uint8",
                      "name": "closed",
                      "type": "uint8"
                    }
                  ],
                  "internalType": "struct GhoTicket.Order",
                  "name": "order",
                  "type": "tuple"
                },
                {
                  "internalType": "uint256",
                  "name": "nbTickets",
                  "type": "uint256"
                }
              ],
              "internalType": "struct GhoTicket.OrderData",
              "name": "order",
              "type": "tuple"
            }
          ],
          "internalType": "struct GhoTicket.TicketData[]",
          "name": "data",
          "type": "tuple[]"
        }
      ],
      "stateMutability": "view",
      "type": "function"
    },
    {
      "inputs": [
        {
          "internalType": "bytes32",
          "name": "orderId",
          "type": "bytes32"
        }
      ],
      "name": "getFullOrder",
      "outputs": [
        {
          "components": [
            {
              "components": [
                {
                  "internalType": "bytes32",
                  "name": "id",
                  "type": "bytes32"
                },
                {
                  "components": [
                    {
                      "internalType": "address",
                      "name": "creator",
                      "type": "address"
                    },
                    {
                      "internalType": "uint256",
                      "name": "amount",
                      "type": "uint256"
                    },
                    {
                      "internalType": "uint256",
                      "name": "createdAt",
                      "type": "uint256"
                    },
                    {
                      "internalType": "uint256",
                      "name": "deadline",
                      "type": "uint256"
                    },
                    {
                      "internalType": "uint8",
                      "name": "streamed",
                      "type": "uint8"
                    },
                    {
                      "internalType": "uint8",
                      "name": "closed",
                      "type": "uint8"
                    }
                  ],
                  "internalType": "struct GhoTicket.Order",
                  "name": "order",
                  "type": "tuple"
                },
                {
                  "internalType": "uint256",
                  "name": "nbTickets",
                  "type": "uint256"
                }
              ],
              "internalType": "struct GhoTicket.OrderData",
              "name": "order",
              "type": "tuple"
            },
            {
              "components": [
                {
                  "internalType": "bytes32[]",
                  "name": "ticketIds",
                  "type": "bytes32[]"
                },
                {
                  "internalType": "address[]",
                  "name": "claimers",
                  "type": "address[]"
                }
              ],
              "internalType": "struct GhoTicket.StatusData",
              "name": "status",
              "type": "tuple"
            }
          ],
          "internalType": "struct GhoTicket.OrderFullData",
          "name": "data",
          "type": "tuple"
        }
      ],
      "stateMutability": "view",
      "type": "function"
    },
    {
      "inputs": [
        {
          "internalType": "bytes32[]",
          "name": "orderIds",
          "type": "bytes32[]"
        }
      ],
      "name": "getFullOrderBatch",
      "outputs": [
        {
          "components": [
            {
              "components": [
                {
                  "internalType": "bytes32",
                  "name": "id",
                  "type": "bytes32"
                },
                {
                  "components": [
                    {
                      "internalType": "address",
                      "name": "creator",
                      "type": "address"
                    },
                    {
                      "internalType": "uint256",
                      "name": "amount",
                      "type": "uint256"
                    },
                    {
                      "internalType": "uint256",
                      "name": "createdAt",
                      "type": "uint256"
                    },
                    {
                      "internalType": "uint256",
                      "name": "deadline",
                      "type": "uint256"
                    },
                    {
                      "internalType": "uint8",
                      "name": "streamed",
                      "type": "uint8"
                    },
                    {
                      "internalType": "uint8",
                      "name": "closed",
                      "type": "uint8"
                    }
                  ],
                  "internalType": "struct GhoTicket.Order",
                  "name": "order",
                  "type": "tuple"
                },
                {
                  "internalType": "uint256",
                  "name": "nbTickets",
                  "type": "uint256"
                }
              ],
              "internalType": "struct GhoTicket.OrderData",
              "name": "order",
              "type": "tuple"
            },
            {
              "components": [
                {
                  "internalType": "bytes32[]",
                  "name": "ticketIds",
                  "type": "bytes32[]"
                },
                {
                  "internalType": "address[]",
                  "name": "claimers",
                  "type": "address[]"
                }
              ],
              "internalType": "struct GhoTicket.StatusData",
              "name": "status",
              "type": "tuple"
            }
          ],
          "internalType": "struct GhoTicket.OrderFullData[]",
          "name": "data",
          "type": "tuple[]"
        }
      ],
      "stateMutability": "view",
      "type": "function"
    },
    {
      "inputs": [
        {
          "internalType": "address",
          "name": "claimer",
          "type": "address"
        }
      ],
      "name": "getNbClaims",
      "outputs": [
        {
          "internalType": "uint256",
          "name": "nbClaims",
          "type": "uint256"
        }
      ],
      "stateMutability": "view",
      "type": "function"
    },
    {
      "inputs": [
        {
          "internalType": "bytes32",
          "name": "orderId",
          "type": "bytes32"
        }
      ],
      "name": "getOrder",
      "outputs": [
        {
          "components": [
            {
              "internalType": "bytes32",
              "name": "id",
              "type": "bytes32"
            },
            {
              "components": [
                {
                  "internalType": "address",
                  "name": "creator",
                  "type": "address"
                },
                {
                  "internalType": "uint256",
                  "name": "amount",
                  "type": "uint256"
                },
                {
                  "internalType": "uint256",
                  "name": "createdAt",
                  "type": "uint256"
                },
                {
                  "internalType": "uint256",
                  "name": "deadline",
                  "type": "uint256"
                },
                {
                  "internalType": "uint8",
                  "name": "streamed",
                  "type": "uint8"
                },
                {
                  "internalType": "uint8",
                  "name": "closed",
                  "type": "uint8"
                }
              ],
              "internalType": "struct GhoTicket.Order",
              "name": "order",
              "type": "tuple"
            },
            {
              "internalType": "uint256",
              "name": "nbTickets",
              "type": "uint256"
            }
          ],
          "internalType": "struct GhoTicket.OrderData",
          "name": "data",
          "type": "tuple"
        }
      ],
      "stateMutability": "view",
      "type": "function"
    },
    {
      "inputs": [
        {
          "internalType": "bytes32",
          "name": "reservation",
          "type": "bytes32"
        }
      ],
      "name": "getReservation",
      "outputs": [
        {
          "internalType": "uint256",
          "name": "unlock",
          "type": "uint256"
        }
      ],
      "stateMutability": "view",
      "type": "function"
    },
    {
      "inputs": [
        {
          "internalType": "bytes32",
          "name": "orderId",
          "type": "bytes32"
        }
      ],
      "name": "getStatus",
      "outputs": [
        {
          "components": [
            {
              "internalType": "bytes32[]",
              "name": "ticketIds",
              "type": "bytes32[]"
            },
            {
              "internalType": "address[]",
              "name": "claimers",
              "type": "address[]"
            }
          ],
          "internalType": "struct GhoTicket.StatusData",
          "name": "data",
          "type": "tuple"
        }
      ],
      "stateMutability": "view",
      "type": "function"
    },
    {
      "inputs": [
        {
          "internalType": "bytes32",
          "name": "ticketId",
          "type": "bytes32"
        }
      ],
      "name": "getTicket",
      "outputs": [
        {
          "components": [
            {
              "internalType": "bytes32",
              "name": "id",
              "type": "bytes32"
            },
            {
              "internalType": "address",
              "name": "claimer",
              "type": "address"
            },
            {
              "internalType": "uint256",
              "name": "amount",
              "type": "uint256"
            },
            {
              "components": [
                {
                  "internalType": "bytes32",
                  "name": "id",
                  "type": "bytes32"
                },
                {
                  "components": [
                    {
                      "internalType": "address",
                      "name": "creator",
                      "type": "address"
                    },
                    {
                      "internalType": "uint256",
                      "name": "amount",
                      "type": "uint256"
                    },
                    {
                      "internalType": "uint256",
                      "name": "createdAt",
                      "type": "uint256"
                    },
                    {
                      "internalType": "uint256",
                      "name": "deadline",
                      "type": "uint256"
                    },
                    {
                      "internalType": "uint8",
                      "name": "streamed",
                      "type": "uint8"
                    },
                    {
                      "internalType": "uint8",
                      "name": "closed",
                      "type": "uint8"
                    }
                  ],
                  "internalType": "struct GhoTicket.Order",
                  "name": "order",
                  "type": "tuple"
                },
                {
                  "internalType": "uint256",
                  "name": "nbTickets",
                  "type": "uint256"
                }
              ],
              "internalType": "struct GhoTicket.OrderData",
              "name": "order",
              "type": "tuple"
            }
          ],
          "internalType": "struct GhoTicket.TicketData",
          "name": "data",
          "type": "tuple"
        }
      ],
      "stateMutability": "view",
      "type": "function"
    },
    {
      "inputs": [
        {
          "internalType": "bytes32[]",
          "name": "ticketIds",
          "type": "bytes32[]"
        }
      ],
      "name": "getWithdrawnStreamBalances",
      "outputs": [
        {
          "internalType": "uint256[]",
          "name": "withdrawn",
          "type": "uint256[]"
        }
      ],
      "stateMutability": "view",
      "type": "function"
    },
    {
      "inputs": [
        {
          "internalType": "bytes32",
          "name": "ticketId",
          "type": "bytes32"
        }
      ],
      "name": "isClaimed",
      "outputs": [
        {
          "internalType": "bool",
          "name": "",
          "type": "bool"
        }
      ],
      "stateMutability": "view",
      "type": "function"
    },
    {
      "inputs": [
        {
          "components": [
            {
              "internalType": "bytes32",
              "name": "orderId",
              "type": "bytes32"
            },
            {
              "internalType": "bytes32",
              "name": "orderSecret",
              "type": "bytes32"
            },
            {
              "internalType": "bytes32",
              "name": "ticketSecret",
              "type": "bytes32"
            },
            {
              "components": [
                {
                  "internalType": "uint8",
                  "name": "v",
                  "type": "uint8"
                },
                {
                  "internalType": "bytes32",
                  "name": "r",
                  "type": "bytes32"
                },
                {
                  "internalType": "bytes32",
                  "name": "s",
                  "type": "bytes32"
                }
              ],
              "internalType": "struct GhoTicket.Signature",
              "name": "signature",
              "type": "tuple"
            }
          ],
          "internalType": "struct GhoTicket.Ticket",
          "name": "ticket",
          "type": "tuple"
        }
      ],
      "name": "isValid",
      "outputs": [
        {
          "internalType": "bytes32",
          "name": "ticketId",
          "type": "bytes32"
        },
        {
          "internalType": "uint256",
          "name": "amount",
          "type": "uint256"
        },
        {
          "internalType": "uint8",
          "name": "streamed",
          "type": "uint8"
        }
      ],
      "stateMutability": "view",
      "type": "function"
    },
    {
      "inputs": [
        {
          "internalType": "bytes32",
          "name": "reservation",
          "type": "bytes32"
        }
      ],
      "name": "reserveTicket",
      "outputs": [],
      "stateMutability": "nonpayable",
      "type": "function"
    },
    {
      "inputs": [
        {
          "internalType": "bytes32",
          "name": "ticketId",
          "type": "bytes32"
        }
      ],
      "name": "withdrawStream",
      "outputs": [],
      "stateMutability": "nonpayable",
      "type": "function"
    }
  ],
  "bytecode": "0x61016060405234801562000011575f80fd5b50604080518082018252600981526811da1bd51a58dad95d60ba1b602080830191909152825180840190935260018352603160f81b908301529062000057825f62000104565b610120526200006881600162000104565b61014052815160208084019190912060e052815190820120610100524660a052620000f560e05161010051604080517f8b73c3c69bb8fe3d512ecc4cf759cc79239f7b179b0ffacaa9a75d522b39400f60208201529081019290925260608201524660808201523060a08201525f9060c00160405160208183030381529060405280519060200120905090565b60805250503060c05262000363565b5f60208351101562000123576200011b836200013c565b905062000136565b8162000130848262000225565b5060ff90505b92915050565b5f80829050601f8151111562000172578260405163305a27a960e01b8152600401620001699190620002f1565b60405180910390fd5b80516200017f826200033f565b179392505050565b634e487b7160e01b5f52604160045260245ffd5b600181811c90821680620001b057607f821691505b602082108103620001cf57634e487b7160e01b5f52602260045260245ffd5b50919050565b601f8211156200022057805f5260205f20601f840160051c81016020851015620001fc5750805b601f840160051c820191505b818110156200021d575f815560010162000208565b50505b505050565b81516001600160401b0381111562000241576200024162000187565b62000259816200025284546200019b565b84620001d5565b602080601f8311600181146200028f575f8415620002775750858301515b5f19600386901b1c1916600185901b178555620002e9565b5f85815260208120601f198616915b82811015620002bf578886015182559484019460019091019084016200029e565b5085821015620002dd57878501515f19600388901b60f8161c191681555b505060018460011b0185555b505050505050565b5f602080835283518060208501525f5b818110156200031f5785810183015185820160400152820162000301565b505f604082860101526040601f19601f8301168501019250505092915050565b80516020808301519190811015620001cf575f1960209190910360031b1b16919050565b60805160a05160c05160e051610100516101205161014051612624620003b55f395f61177e01525f61175201525f6116df01525f6116b701525f61161201525f61163c01525f61166601526126245ff3fe608060405234801561000f575f80fd5b5060043610610184575f3560e01c8063ae41ebad116100dd578063d126199f11610088578063ec68555f11610063578063ec68555f146103fc578063fb73b1ce1461041b578063fc8be6991461042e575f80fd5b8063d126199f146103a1578063d5d863e3146103c9578063e503516f146103e9575f80fd5b8063b89c3952116100b8578063b89c39521461031d578063b8d008f31461034e578063cf77adc814610381575f80fd5b8063ae41ebad146102b2578063afcca0fb146102c5578063b83a63ba146102f6575f80fd5b80634cf49aa91161013d57806377f07ccf1161011857806377f07ccf146102575780638477a07b1461027757806384b0196e14610297575f80fd5b80634cf49aa9146101f75780635778472a146102175780635de28ae014610237575f80fd5b80633644e5151161016d5780633644e515146101c65780633bed6b95146101dc5780633eb26e36146101ef575f80fd5b80630b5676d214610188578063302190c91461019d575b5f80fd5b61019b610196366004611dc4565b610441565b005b6101b06101ab366004611df6565b6104fc565b6040516101bd9190611e26565b60405180910390f35b6101ce610529565b6040519081526020016101bd565b61019b6101ea366004611dc4565b610537565b6101ce603c81565b61020a610205366004611ed7565b610797565b6040516101bd9190611fb2565b61022a610225366004611dc4565b61085d565b6040516101bd9190611fc4565b61024a610245366004611dc4565b61093c565b6040516101bd91906120ba565b61026a610265366004611dc4565b610a45565b6040516101bd9190612157565b61028a610285366004611ed7565b610a6b565b6040516101bd9190612169565b61029f610abf565b6040516101bd979695949392919061220e565b61019b6102c03660046122a7565b610b1d565b6102d86102d3366004612341565b610d2a565b60408051938452602084019290925260ff16908201526060016101bd565b6101ce7fc9569bc389629bd63269af73dda8915116ce58858c48577079dbd2a8050711fd81565b61033e61032b366004611dc4565b5f90815260076020526040902054151590565b60405190151581526020016101bd565b61036973c4bf5cbdabe595361438f8c6a187bdc330539c6081565b6040516001600160a01b0390911681526020016101bd565b61039461038f366004611df6565b610d51565b6040516101bd91906123e4565b6101ce6103af366004612426565b6001600160a01b03165f9081526002602052604090205490565b6103dc6103d7366004611dc4565b610dd4565b6040516101bd919061243f565b61019b6103f736600461245e565b610eae565b6101ce61040a366004611dc4565b5f9081526006602052604090205490565b6101ce610429366004612426565b611284565b61019b61043c366004611dc4565b6112aa565b5f818152600660205260409020541561048e576040517fe26b6c3a000000000000000000000000000000000000000000000000000000008152600481018290526024015b60405180910390fd5b5f61049a603c42612514565b5f8381526006602052604090208190559050336001600160a01b03167fc2e6e791274f4ca6517553570472956264bb5d03c9b67ea9b0ccd1e3aed81c4183836040516104f0929190918252602082015260400190565b60405180910390a25050565b6001600160a01b0383165f908152600360205260409020606090610521908484611575565b949350505050565b5f610532611606565b905090565b5f81815260046020818152604092839020835160c08101855281546001600160a01b0316808252600183015493820193909352600282015494810194909452600381015460608501529091015460ff80821660808501526101009091041660a0830152339190821415806105ae5750428160600151115b806105bf57505f8160a0015160ff16115b156105e057604051630aa881a960e11b815260048101849052602401610485565b5f8381526005602052604081206105f69061172f565b90505f805b8251811015610659575f801b60075f85848151811061061c5761061c612527565b602002602001015181526020019081526020015f205f015411610640576001610642565b5f5b61064f9060ff1683612514565b91506001016105fb565b505f825182856020015161066d919061253b565b6106779190612552565b90508015610773575f868152600460208190526040918290208101805461ff001916610100179055905163a9059cbb60e01b815273c4bf5cbdabe595361438f8c6a187bdc330539c609163a9059cbb916106e99189918691016001600160a01b03929092168252602082015260400190565b6020604051808303815f875af1158015610705573d5f803e3d5ffd5b505050506040513d601f19601f820116820180604052508101906107299190612571565b50846001600160a01b0316867f0e0cd4d3eaa4898e1ec8edbb7adc18a8fd52571f73419fff122e9d517360eaa18360405161076691815260200190565b60405180910390a361078f565b604051630aa881a960e11b815260048101879052602401610485565b505050505050565b60605f5b82518110156108575760025f60075f8685815181106107bc576107bc612527565b602002602001015181526020019081526020015f206001015f9054906101000a90046001600160a01b03166001600160a01b03166001600160a01b031681526020019081526020015f206001015f84838151811061081c5761081c612527565b602002602001015181526020019081526020015f205482828151811061084457610844612527565b602090810291909101015260010161079b565b50919050565b6108ab60408051606080820183525f808352835160c08101855281815260208181018390529481018290529182018190526080820181905260a0820152909182019081526020015f81525090565b60408051606080820183528482525f85815260046020818152858320865160c08101885281546001600160a01b031681526001820154818401526002820154818901526003820154958101959095529091015460ff80821660808601526101009091041660a0840152808401929092528581526005909152829020909182019061093490611742565b905292915050565b60408051808201909152606080825260208201525f8281526005602052604090206109669061172f565b8082525167ffffffffffffffff81111561098257610982611e69565b6040519080825280602002602001820160405280156109ab578160200160208202803683370190505b5060208201525f5b815151811015610857575f60075f845f015184815181106109d6576109d6612527565b60209081029190910181015182528101919091526040015f20600101546001600160a01b031690508015610a3c578083602001518381518110610a1b57610a1b612527565b60200260200101906001600160a01b031690816001600160a01b0316815250505b506001016109b3565b610a4d611d50565b610a568261085d565b8152610a618261093c565b6020820152919050565b60605f5b825181101561085757610a9a838281518110610a8d57610a8d612527565b6020026020010151610a45565b828281518110610aac57610aac612527565b6020908102919091010152600101610a6f565b5f6060805f805f6060610ad061174b565b610ad8611777565b604080515f808252602082019092527f0f000000000000000000000000000000000000000000000000000000000000009b939a50919850469750309650945092509050565b602081810151604080840151905133606081901b6bffffffffffffffffffffffff191694820194909452603481019290925260548201525f9060740160408051601f1981840301815291815281516020928301205f8181526006909352912054909150801580610b8c57508042105b15610bc6576040517f4f31f9ad00000000000000000000000000000000000000000000000000000000815260048101839052602401610485565b5f805f610bd2876117a4565b6040805180820182528b5181526001600160a01b038b811660208084018281525f89815260078352868120955186559051600190950180547fffffffffffffffffffffffff0000000000000000000000000000000000000000169590941694909417909255825260039052209295509093509150610c509084611aeb565b508060ff165f03610cdf5760405163a9059cbb60e01b81526001600160a01b03871660048201526024810183905273c4bf5cbdabe595361438f8c6a187bdc330539c609063a9059cbb906044016020604051808303815f875af1158015610cb9573d5f803e3d5ffd5b505050506040513d601f19601f82011682018060405250810190610cdd9190612571565b505b86516040518381526001600160a01b0388169185917fdbaf21cad9ab5b3678c5ec10ae109afd74acb5208ff47f562d77eb09183eeb039060200160405180910390a450505050505050565b5f8080610d44610d3f368690038601866122a7565b6117a4565b9250925092509193909250565b6001600160a01b0383165f90815260036020526040812060609190610d77908585611575565b90505f5b8151811015610dcb57610da6828281518110610d9957610d99612527565b6020026020010151610dd4565b838281518110610db857610db8612527565b6020908102919091010152600101610d7b565b50509392505050565b610e3d60408051608080820183525f8083526020808401829052838501829052845160608181018752838252865160c08101885284815280840185905280880185905280820185905294850184905260a085018490529181019390935293820152909182015290565b5f82815260076020908152604091829020825180840190935280548352600101546001600160a01b039081168383019081528585525116908301528051610e839061085d565b60608301819052604081015160209182015190910151610ea39190612552565b604083015250919050565b851580610ebb5750428511155b80610ec9575060018460ff16115b80610ed2575081155b15610f09576040517faf61069300000000000000000000000000000000000000000000000000000000815260040160405180910390fd5b3373c4bf5cbdabe595361438f8c6a187bdc330539c6063d505accf82308a8a610f356020890189612590565b604080517fffffffff0000000000000000000000000000000000000000000000000000000060e089901b1681526001600160a01b0396871660048201529590941660248601526044850192909252606484015260ff166084830152602086013560a483015285013560c482015260e4015f604051808303815f87803b158015610fbc575f80fd5b505af1158015610fce573d5f803e3d5ffd5b50506040517f23b872dd0000000000000000000000000000000000000000000000000000000081526001600160a01b0384166004820152306024820152604481018a905273c4bf5cbdabe595361438f8c6a187bdc330539c6092506323b872dd91506064016020604051808303815f875af115801561104f573d5f803e3d5ffd5b505050506040513d601f19601f820116820180604052508101906110739190612571565b506001600160a01b0381165f9081526002602090815260408083205490516bffffffffffffffffffffffff19606086901b16928101929092526034820181905291906054016040516020818303038152906040528051906020012090508160016110dd9190612514565b60025f856001600160a01b03166001600160a01b031681526020019081526020015f205f01819055506040518060c00160405280846001600160a01b031681526020018a81526020014281526020018981526020018860ff1681526020015f60ff1681525060045f8381526020019081526020015f205f820151815f015f6101000a8154816001600160a01b0302191690836001600160a01b031602179055506020820151816001015560408201518160020155606082015181600301556080820151816004015f6101000a81548160ff021916908360ff16021790555060a08201518160040160016101000a81548160ff021916908360ff1602179055509050505f60055f8381526020019081526020015f2090505f5b868110156112315761122888888381811061121257611212612527565b9050602002013583611aeb90919063ffffffff16565b506001016111f5565b50604080518b8152602081018890526001600160a01b0386169184917fca21890c07259113ea29255a6bdb21ca5e46cdf0bc0222904d499136922dd030910160405180910390a350505050505050505050565b6001600160a01b0381165f9081526003602052604081206112a490611742565b92915050565b5f81815260076020908152604091829020825180840190935280548352600101546001600160a01b031690820181905233919082146112ff57604051630aa881a960e11b815260048101849052602401610485565b80515f908152600460208181526040808420815160c08101835281546001600160a01b03168152600182015493810193909352600281015491830191909152600381015460608301529091015460ff808216608084018190526101009092041660a083015290910361138757604051630aa881a960e11b815260048101859052602401610485565b81515f90815260056020526040812061139f90611742565b82602001516113ae9190612552565b6001600160a01b0385165f9081526002602090815260408083208984526001019091528120546060850151929350914211156113f5576113ee82846125a9565b9050611444565b5f84604001514261140691906125a9565b90505f8560400151866060015161141d91906125a9565b9050838161142b848861253b565b6114359190612552565b61143f91906125a9565b925050505b8015611550576001600160a01b0386165f9081526002602090815260408083208a84526001019091528120805483929061147f908490612514565b909155505060405163a9059cbb60e01b81526001600160a01b03871660048201526024810182905273c4bf5cbdabe595361438f8c6a187bdc330539c609063a9059cbb906044016020604051808303815f875af11580156114e2573d5f803e3d5ffd5b505050506040513d601f19601f820116820180604052508101906115069190612571565b50856001600160a01b0316877f76c3b0b8c255c4c2c7372a000da81ba4dc24fe01e03ed15aad8ccd9bd04792628360405161154391815260200190565b60405180910390a361156c565b604051630aa881a960e11b815260048101889052602401610485565b50505050505050565b60608167ffffffffffffffff81111561159057611590611e69565b6040519080825280602002602001820160405280156115b9578160200160208202803683370190505b5090505f5b828110156115fe576115d9856115d48387612514565b611af6565b8282815181106115eb576115eb612527565b60209081029190910101526001016115be565b509392505050565b5f306001600160a01b037f00000000000000000000000000000000000000000000000000000000000000001614801561165e57507f000000000000000000000000000000000000000000000000000000000000000046145b1561168857507f000000000000000000000000000000000000000000000000000000000000000090565b610532604080517f8b73c3c69bb8fe3d512ecc4cf759cc79239f7b179b0ffacaa9a75d522b39400f60208201527f0000000000000000000000000000000000000000000000000000000000000000918101919091527f000000000000000000000000000000000000000000000000000000000000000060608201524660808201523060a08201525f9060c00160405160208183030381529060405280519060200120905090565b60605f61173b83611b01565b9392505050565b5f6112a4825490565b60606105327f00000000000000000000000000000000000000000000000000000000000000005f611b5a565b60606105327f00000000000000000000000000000000000000000000000000000000000000006001611b5a565b5f805f836020015184604001516040516020016117cb929190918252602082015260400190565b60408051601f19818403018152918152815160209283012086515f908152600590935291209093506117fd8185611c03565b6118405784516040517f3e0266b8000000000000000000000000000000000000000000000000000000008152600481019190915260248101859052604401610485565b5f84815260076020526040902054156118925784516040517fac77c46c000000000000000000000000000000000000000000000000000000008152600481019190915260248101859052604401610485565b84515f90815260046020818152604092839020835160c08101855281546001600160a01b03168152600182015492810192909252600281015493820193909352600383015460608201819052929091015460ff80821660808401526101009091041660a08201529042111561194a57855160608201516040517fdf9c7e250000000000000000000000000000000000000000000000000000000081526004810192909252602482018790526044820152606401610485565b80516020808301516060808501516080808701518c518d870151604080517fc9569bc389629bd63269af73dda8915116ce58858c48577079dbd2a8050711fd998101999099526001600160a01b03909916988801989098529386019490945284015260ff90911660a083015260c082015260e08101919091525f906001906119eb906101000160405160208183030381529060405280519060200120611c1a565b6060890151805160208083015160409384015184515f815290920193849052611a30949390919093845260ff9290921660208401526040830152606082015260800190565b6020604051602081039080840390855afa158015611a50573d5f803e3d5ffd5b505050602060405103519050815f01516001600160a01b0316816001600160a01b031614611ac05781516040517f7ba5ffb50000000000000000000000000000000000000000000000000000000081526001600160a01b0391821660048201529082166024820152604401610485565b611ac983611742565b8260200151611ad89190612552565b9450816080015193505050509193909250565b5f61173b8383611c61565b5f61173b8383611cad565b6060815f01805480602002602001604051908101604052809291908181526020018280548015611b4e57602002820191905f5260205f20905b815481526020019060010190808311611b3a575b50505050509050919050565b606060ff8314611b7457611b6d83611cd3565b90506112a4565b818054611b80906125bc565b80601f0160208091040260200160405190810160405280929190818152602001828054611bac906125bc565b8015611bf75780601f10611bce57610100808354040283529160200191611bf7565b820191905f5260205f20905b815481529060010190602001808311611bda57829003601f168201915b505050505090506112a4565b5f818152600183016020526040812054151561173b565b5f6112a4611c26611606565b836040517f19010000000000000000000000000000000000000000000000000000000000008152600281019290925260228201526042902090565b5f818152600183016020526040812054611ca657508154600181810184555f8481526020808220909301849055845484825282860190935260409020919091556112a4565b505f6112a4565b5f825f018281548110611cc257611cc2612527565b905f5260205f200154905092915050565b60605f611cdf83611d10565b6040805160208082528183019092529192505f91906020820181803683375050509182525060208101929092525090565b5f60ff8216601f8111156112a4576040517fb3512b0c00000000000000000000000000000000000000000000000000000000815260040160405180910390fd5b6040805160a080820183525f828401818152845160c0810186528281526020810183905294850182905260608581018390526080808701849052938601839052840194909452908201529081908152602001611dbf604051806040016040528060608152602001606081525090565b905290565b5f60208284031215611dd4575f80fd5b5035919050565b80356001600160a01b0381168114611df1575f80fd5b919050565b5f805f60608486031215611e08575f80fd5b611e1184611ddb565b95602085013595506040909401359392505050565b602080825282518282018190525f9190848201906040850190845b81811015611e5d57835183529284019291840191600101611e41565b50909695505050505050565b634e487b7160e01b5f52604160045260245ffd5b6040516060810167ffffffffffffffff81118282101715611ea057611ea0611e69565b60405290565b604051601f8201601f1916810167ffffffffffffffff81118282101715611ecf57611ecf611e69565b604052919050565b5f6020808385031215611ee8575f80fd5b823567ffffffffffffffff80821115611eff575f80fd5b818501915085601f830112611f12575f80fd5b813581811115611f2457611f24611e69565b8060051b9150611f35848301611ea6565b8181529183018401918481019088841115611f4e575f80fd5b938501935b83851015611f6c57843582529385019390850190611f53565b98975050505050505050565b5f815180845260208085019450602084015f5b83811015611fa757815187529582019590820190600101611f8b565b509495945050505050565b602081525f61173b6020830184611f78565b61010081016112a482848051825260208101516001600160a01b03815116602084015260208101516040840152604081015160608401526060810151608084015260ff60808201511660a084015260ff60a08201511660c084015250604081015160e08301525050565b8051604080845281519084018190525f91602091908201906060860190845b818110156120695783518352928401929184019160010161204d565b50508483015186820387850152805180835290840192505f918401905b808310156120af5783516001600160a01b03168252928401926001929092019190840190612086565b509695505050505050565b602081525f61173b602083018461202e565b5f6101206121368484518051825260208101516001600160a01b03815116602084015260208101516040840152604081015160608401526060810151608084015260ff60808201511660a084015260ff60a08201511660c084015250604081015160e08301525050565b60208301518161010086015261214e8286018261202e565b95945050505050565b602081525f61173b60208301846120cc565b5f60208083016020845280855180835260408601915060408160051b8701019250602087015f5b828110156121be57603f198886030184526121ac8583516120cc565b94509285019290850190600101612190565b5092979650505050505050565b5f81518084525f5b818110156121ef576020818501810151868301820152016121d3565b505f602082860101526020601f19601f83011685010191505092915050565b7fff000000000000000000000000000000000000000000000000000000000000008816815260e060208201525f61224860e08301896121cb565b828103604084015261225a81896121cb565b90508660608401526001600160a01b03861660808401528460a084015282810360c08401526122898185611f78565b9a9950505050505050505050565b803560ff81168114611df1575f80fd5b5f81830360c08112156122b8575f80fd5b6040516080810181811067ffffffffffffffff821117156122db576122db611e69565b80604052508335815260208401356020820152604084013560408201526060605f1983011215612309575f80fd5b612311611e7d565b915061231f60608501612297565b82526080840135602083015260a0909301356040820152606083015250919050565b5f60c08284031215610857575f80fd5b805182526001600160a01b0360208201511660208301526040810151604083015260608101516123df60608401828051825260208101516001600160a01b03815116602084015260208101516040840152604081015160608401526060810151608084015260ff60808201511660a084015260ff60a08201511660c084015250604081015160e08301525050565b505050565b602080825282518282018190525f9190848201906040850190845b81811015611e5d57612412838551612351565b9284019261016092909201916001016123ff565b5f60208284031215612436575f80fd5b61173b82611ddb565b61016081016112a48284612351565b5f60608284031215610857575f80fd5b5f805f805f8060e08789031215612473575f80fd5b863595506020870135945061248a60408801612297565b9350606087013567ffffffffffffffff808211156124a6575f80fd5b818901915089601f8301126124b9575f80fd5b8135818111156124c7575f80fd5b8a60208260051b85010111156124db575f80fd5b6020830195508094505050506124f4886080890161244e565b90509295509295509295565b634e487b7160e01b5f52601160045260245ffd5b808201808211156112a4576112a4612500565b634e487b7160e01b5f52603260045260245ffd5b80820281158282048414176112a4576112a4612500565b5f8261256c57634e487b7160e01b5f52601260045260245ffd5b500490565b5f60208284031215612581575f80fd5b8151801515811461173b575f80fd5b5f602082840312156125a0575f80fd5b61173b82612297565b818103818111156112a4576112a4612500565b600181811c908216806125d057607f821691505b60208210810361085757634e487b7160e01b5f52602260045260245ffdfea264697066735822122050659da4afbd3302caa8ccfa35d4bfec4eae819da3eb3ff499be320ce934d72a64736f6c63430008170033",
  "linkReferences": {},
  "deployedLinkReferences": {}
}