{
  "_format": "hh-sol-artifact-1",
  "contractName": "GhoTicket",
  "sourceName": "contracts/GhoTicket.sol",
  "abi": [
    {
      "inputs": [],
      "stateMutability": "nonpayable",
      "type": "constructor"
    },
    {
      "inputs": [],
      "name": "InvalidOrder",
      "type": "error"
    },
    {
      "inputs": [],
      "name": "InvalidShortString",
      "type": "error"
    },
    {
      "inputs": [
        {
          "internalType": "address",
          "name": "creator",
          "type": "address"
        },
        {
          "internalType": "address",
          "name": "signer",
          "type": "address"
        }
      ],
      "name": "InvalidSigner",
      "type": "error"
    },
    {
      "inputs": [
        {
          "internalType": "bytes32",
          "name": "id",
          "type": "bytes32"
        }
      ],
      "name": "InvalidWithdraw",
      "type": "error"
    },
    {
      "inputs": [
        {
          "internalType": "bytes32",
          "name": "reservation",
          "type": "bytes32"
        }
      ],
      "name": "ReservationNotChanged",
      "type": "error"
    },
    {
      "inputs": [
        {
          "internalType": "bytes32",
          "name": "reservation",
          "type": "bytes32"
        }
      ],
      "name": "ReservationNotFound",
      "type": "error"
    },
    {
      "inputs": [
        {
          "internalType": "string",
          "name": "str",
          "type": "string"
        }
      ],
      "name": "StringTooLong",
      "type": "error"
    },
    {
      "inputs": [
        {
          "internalType": "bytes32",
          "name": "orderId",
          "type": "bytes32"
        },
        {
          "internalType": "bytes32",
          "name": "ticketId",
          "type": "bytes32"
        }
      ],
      "name": "TicketAlreadyClaimed",
      "type": "error"
    },
    {
      "inputs": [
        {
          "internalType": "bytes32",
          "name": "orderId",
          "type": "bytes32"
        },
        {
          "internalType": "bytes32",
          "name": "ticketId",
          "type": "bytes32"
        },
        {
          "internalType": "uint256",
          "name": "deadline",
          "type": "uint256"
        }
      ],
      "name": "TicketExpired",
      "type": "error"
    },
    {
      "inputs": [
        {
          "internalType": "bytes32",
          "name": "orderId",
          "type": "bytes32"
        },
        {
          "internalType": "bytes32",
          "name": "ticketId",
          "type": "bytes32"
        }
      ],
      "name": "TicketNotFound",
      "type": "error"
    },
    {
      "anonymous": false,
      "inputs": [],
      "name": "EIP712DomainChanged",
      "type": "event"
    },
    {
      "anonymous": false,
      "inputs": [
        {
          "indexed": true,
          "internalType": "bytes32",
          "name": "orderId",
          "type": "bytes32"
        },
        {
          "indexed": true,
          "internalType": "address",
          "name": "creator",
          "type": "address"
        },
        {
          "indexed": false,
          "internalType": "uint256",
          "name": "amount",
          "type": "uint256"
        }
      ],
      "name": "OrderClosed",
      "type": "event"
    },
    {
      "anonymous": false,
      "inputs": [
        {
          "indexed": true,
          "internalType": "bytes32",
          "name": "orderId",
          "type": "bytes32"
        },
        {
          "indexed": true,
          "internalType": "address",
          "name": "creator",
          "type": "address"
        },
        {
          "indexed": false,
          "internalType": "uint256",
          "name": "amount",
          "type": "uint256"
        },
        {
          "indexed": false,
          "internalType": "uint256",
          "name": "nbTickets",
          "type": "uint256"
        }
      ],
      "name": "OrderCreated",
      "type": "event"
    },
    {
      "anonymous": false,
      "inputs": [
        {
          "indexed": true,
          "internalType": "bytes32",
          "name": "ticketId",
          "type": "bytes32"
        },
        {
          "indexed": true,
          "internalType": "address",
          "name": "claimer",
          "type": "address"
        },
        {
          "indexed": false,
          "internalType": "uint256",
          "name": "amount",
          "type": "uint256"
        }
      ],
      "name": "StreamWithdrawn",
      "type": "event"
    },
    {
      "anonymous": false,
      "inputs": [
        {
          "indexed": true,
          "internalType": "bytes32",
          "name": "orderId",
          "type": "bytes32"
        },
        {
          "indexed": true,
          "internalType": "bytes32",
          "name": "ticketId",
          "type": "bytes32"
        },
        {
          "indexed": true,
          "internalType": "address",
          "name": "claimer",
          "type": "address"
        },
        {
          "indexed": false,
          "internalType": "uint256",
          "name": "amount",
          "type": "uint256"
        }
      ],
      "name": "TicketClaimed",
      "type": "event"
    },
    {
      "anonymous": false,
      "inputs": [
        {
          "indexed": true,
          "internalType": "address",
          "name": "claimer",
          "type": "address"
        },
        {
          "indexed": false,
          "internalType": "bytes32",
          "name": "reservation",
          "type": "bytes32"
        },
        {
          "indexed": false,
          "internalType": "uint256",
          "name": "unlock",
          "type": "uint256"
        }
      ],
      "name": "TicketReserved",
      "type": "event"
    },
    {
      "inputs": [],
      "name": "DOMAIN_SEPARATOR",
      "outputs": [
        {
          "internalType": "bytes32",
          "name": "",
          "type": "bytes32"
        }
      ],
      "stateMutability": "view",
      "type": "function"
    },
    {
      "inputs": [],
      "name": "GHO",
      "outputs": [
        {
          "internalType": "contract ERC20Permit",
          "name": "",
          "type": "address"
        }
      ],
      "stateMutability": "view",
      "type": "function"
    },
    {
      "inputs": [],
      "name": "SAFETY_DELAY",
      "outputs": [
        {
          "internalType": "uint256",
          "name": "",
          "type": "uint256"
        }
      ],
      "stateMutability": "view",
      "type": "function"
    },
    {
      "inputs": [],
      "name": "TICKET_PERMIT_TYPEHASH",
      "outputs": [
        {
          "internalType": "bytes32",
          "name": "",
          "type": "bytes32"
        }
      ],
      "stateMutability": "view",
      "type": "function"
    },
    {
      "inputs": [
        {
          "components": [
            {
              "internalType": "bytes32",
              "name": "orderId",
              "type": "bytes32"
            },
            {
              "internalType": "bytes32",
              "name": "orderSecret",
              "type": "bytes32"
            },
            {
              "internalType": "bytes32",
              "name": "ticketSecret",
              "type": "bytes32"
            },
            {
              "components": [
                {
                  "internalType": "uint8",
                  "name": "v",
                  "type": "uint8"
                },
                {
                  "internalType": "bytes32",
                  "name": "r",
                  "type": "bytes32"
                },
                {
                  "internalType": "bytes32",
                  "name": "s",
                  "type": "bytes32"
                }
              ],
              "internalType": "struct GhoTicket.Signature",
              "name": "signature",
              "type": "tuple"
            }
          ],
          "internalType": "struct GhoTicket.Ticket",
          "name": "ticket",
          "type": "tuple"
        }
      ],
      "name": "claimTicket",
      "outputs": [],
      "stateMutability": "nonpayable",
      "type": "function"
    },
    {
      "inputs": [
        {
          "internalType": "bytes32",
          "name": "orderId",
          "type": "bytes32"
        }
      ],
      "name": "closeOrder",
      "outputs": [],
      "stateMutability": "nonpayable",
      "type": "function"
    },
    {
      "inputs": [
        {
          "internalType": "uint256",
          "name": "amount",
          "type": "uint256"
        },
        {
          "internalType": "uint256",
          "name": "deadline",
          "type": "uint256"
        },
        {
          "internalType": "uint8",
          "name": "streamed",
          "type": "uint8"
        },
        {
          "internalType": "bytes32[]",
          "name": "tickets",
          "type": "bytes32[]"
        },
        {
          "components": [
            {
              "internalType": "uint8",
              "name": "v",
              "type": "uint8"
            },
            {
              "internalType": "bytes32",
              "name": "r",
              "type": "bytes32"
            },
            {
              "internalType": "bytes32",
              "name": "s",
              "type": "bytes32"
            }
          ],
          "internalType": "struct GhoTicket.Signature",
          "name": "signature",
          "type": "tuple"
        },
        {
          "internalType": "uint256",
          "name": "signatureDeadline",
          "type": "uint256"
        }
      ],
      "name": "createOrder",
      "outputs": [],
      "stateMutability": "nonpayable",
      "type": "function"
    },
    {
      "inputs": [],
      "name": "eip712Domain",
      "outputs": [
        {
          "internalType": "bytes1",
          "name": "fields",
          "type": "bytes1"
        },
        {
          "internalType": "string",
          "name": "name",
          "type": "string"
        },
        {
          "internalType": "string",
          "name": "version",
          "type": "string"
        },
        {
          "internalType": "uint256",
          "name": "chainId",
          "type": "uint256"
        },
        {
          "internalType": "address",
          "name": "verifyingContract",
          "type": "address"
        },
        {
          "internalType": "bytes32",
          "name": "salt",
          "type": "bytes32"
        },
        {
          "internalType": "uint256[]",
          "name": "extensions",
          "type": "uint256[]"
        }
      ],
      "stateMutability": "view",
      "type": "function"
    },
    {
      "inputs": [
        {
          "internalType": "address",
          "name": "addr",
          "type": "address"
        }
      ],
      "name": "getAccountNonce",
      "outputs": [
        {
          "internalType": "uint256",
          "name": "nonce",
          "type": "uint256"
        }
      ],
      "stateMutability": "view",
      "type": "function"
    },
    {
      "inputs": [
        {
          "internalType": "address",
          "name": "claimer",
          "type": "address"
        },
        {
          "internalType": "uint256",
          "name": "start",
          "type": "uint256"
        },
        {
          "internalType": "uint256",
          "name": "size",
          "type": "uint256"
        }
      ],
      "name": "getClaims",
      "outputs": [
        {
          "internalType": "bytes32[]",
          "name": "data",
          "type": "bytes32[]"
        }
      ],
      "stateMutability": "view",
      "type": "function"
    },
    {
      "inputs": [
        {
          "internalType": "address",
          "name": "claimer",
          "type": "address"
        },
        {
          "internalType": "uint256",
          "name": "start",
          "type": "uint256"
        },
        {
          "internalType": "uint256",
          "name": "size",
          "type": "uint256"
        }
      ],
      "name": "getFullClaims",
      "outputs": [
        {
          "components": [
            {
              "internalType": "bytes32",
              "name": "id",
              "type": "bytes32"
            },
            {
              "internalType": "address",
              "name": "claimer",
              "type": "address"
            },
            {
              "internalType": "uint256",
              "name": "amount",
              "type": "uint256"
            },
            {
              "components": [
                {
                  "internalType": "bytes32",
                  "name": "id",
                  "type": "bytes32"
                },
                {
                  "components": [
                    {
                      "internalType": "address",
                      "name": "creator",
                      "type": "address"
                    },
                    {
                      "internalType": "uint256",
                      "name": "amount",
                      "type": "uint256"
                    },
                    {
                      "internalType": "uint256",
                      "name": "createdAt",
                      "type": "uint256"
                    },
                    {
                      "internalType": "uint256",
                      "name": "deadline",
                      "type": "uint256"
                    },
                    {
                      "internalType": "uint8",
                      "name": "streamed",
                      "type": "uint8"
                    },
                    {
                      "internalType": "uint8",
                      "name": "closed",
                      "type": "uint8"
                    }
                  ],
                  "internalType": "struct GhoTicket.Order",
                  "name": "order",
                  "type": "tuple"
                },
                {
                  "internalType": "uint256",
                  "name": "nbTickets",
                  "type": "uint256"
                }
              ],
              "internalType": "struct GhoTicket.OrderData",
              "name": "order",
              "type": "tuple"
            }
          ],
          "internalType": "struct GhoTicket.TicketData[]",
          "name": "data",
          "type": "tuple[]"
        }
      ],
      "stateMutability": "view",
      "type": "function"
    },
    {
      "inputs": [
        {
          "internalType": "bytes32",
          "name": "orderId",
          "type": "bytes32"
        }
      ],
      "name": "getFullOrder",
      "outputs": [
        {
          "components": [
            {
              "components": [
                {
                  "internalType": "bytes32",
                  "name": "id",
                  "type": "bytes32"
                },
                {
                  "components": [
                    {
                      "internalType": "address",
                      "name": "creator",
                      "type": "address"
                    },
                    {
                      "internalType": "uint256",
                      "name": "amount",
                      "type": "uint256"
                    },
                    {
                      "internalType": "uint256",
                      "name": "createdAt",
                      "type": "uint256"
                    },
                    {
                      "internalType": "uint256",
                      "name": "deadline",
                      "type": "uint256"
                    },
                    {
                      "internalType": "uint8",
                      "name": "streamed",
                      "type": "uint8"
                    },
                    {
                      "internalType": "uint8",
                      "name": "closed",
                      "type": "uint8"
                    }
                  ],
                  "internalType": "struct GhoTicket.Order",
                  "name": "order",
                  "type": "tuple"
                },
                {
                  "internalType": "uint256",
                  "name": "nbTickets",
                  "type": "uint256"
                }
              ],
              "internalType": "struct GhoTicket.OrderData",
              "name": "order",
              "type": "tuple"
            },
            {
              "components": [
                {
                  "internalType": "bytes32[]",
                  "name": "ticketIds",
                  "type": "bytes32[]"
                },
                {
                  "internalType": "address[]",
                  "name": "claimers",
                  "type": "address[]"
                }
              ],
              "internalType": "struct GhoTicket.StatusData",
              "name": "status",
              "type": "tuple"
            }
          ],
          "internalType": "struct GhoTicket.OrderFullData",
          "name": "data",
          "type": "tuple"
        }
      ],
      "stateMutability": "view",
      "type": "function"
    },
    {
      "inputs": [
        {
          "internalType": "bytes32[]",
          "name": "orderIds",
          "type": "bytes32[]"
        }
      ],
      "name": "getFullOrderBatch",
      "outputs": [
        {
          "components": [
            {
              "components": [
                {
                  "internalType": "bytes32",
                  "name": "id",
                  "type": "bytes32"
                },
                {
                  "components": [
                    {
                      "internalType": "address",
                      "name": "creator",
                      "type": "address"
                    },
                    {
                      "internalType": "uint256",
                      "name": "amount",
                      "type": "uint256"
                    },
                    {
                      "internalType": "uint256",
                      "name": "createdAt",
                      "type": "uint256"
                    },
                    {
                      "internalType": "uint256",
                      "name": "deadline",
                      "type": "uint256"
                    },
                    {
                      "internalType": "uint8",
                      "name": "streamed",
                      "type": "uint8"
                    },
                    {
                      "internalType": "uint8",
                      "name": "closed",
                      "type": "uint8"
                    }
                  ],
                  "internalType": "struct GhoTicket.Order",
                  "name": "order",
                  "type": "tuple"
                },
                {
                  "internalType": "uint256",
                  "name": "nbTickets",
                  "type": "uint256"
                }
              ],
              "internalType": "struct GhoTicket.OrderData",
              "name": "order",
              "type": "tuple"
            },
            {
              "components": [
                {
                  "internalType": "bytes32[]",
                  "name": "ticketIds",
                  "type": "bytes32[]"
                },
                {
                  "internalType": "address[]",
                  "name": "claimers",
                  "type": "address[]"
                }
              ],
              "internalType": "struct GhoTicket.StatusData",
              "name": "status",
              "type": "tuple"
            }
          ],
          "internalType": "struct GhoTicket.OrderFullData[]",
          "name": "data",
          "type": "tuple[]"
        }
      ],
      "stateMutability": "view",
      "type": "function"
    },
    {
      "inputs": [
        {
          "internalType": "address",
          "name": "claimer",
          "type": "address"
        }
      ],
      "name": "getNbClaims",
      "outputs": [
        {
          "internalType": "uint256",
          "name": "nbClaims",
          "type": "uint256"
        }
      ],
      "stateMutability": "view",
      "type": "function"
    },
    {
      "inputs": [
        {
          "internalType": "bytes32",
          "name": "orderId",
          "type": "bytes32"
        }
      ],
      "name": "getOrder",
      "outputs": [
        {
          "components": [
            {
              "internalType": "bytes32",
              "name": "id",
              "type": "bytes32"
            },
            {
              "components": [
                {
                  "internalType": "address",
                  "name": "creator",
                  "type": "address"
                },
                {
                  "internalType": "uint256",
                  "name": "amount",
                  "type": "uint256"
                },
                {
                  "internalType": "uint256",
                  "name": "createdAt",
                  "type": "uint256"
                },
                {
                  "internalType": "uint256",
                  "name": "deadline",
                  "type": "uint256"
                },
                {
                  "internalType": "uint8",
                  "name": "streamed",
                  "type": "uint8"
                },
                {
                  "internalType": "uint8",
                  "name": "closed",
                  "type": "uint8"
                }
              ],
              "internalType": "struct GhoTicket.Order",
              "name": "order",
              "type": "tuple"
            },
            {
              "internalType": "uint256",
              "name": "nbTickets",
              "type": "uint256"
            }
          ],
          "internalType": "struct GhoTicket.OrderData",
          "name": "data",
          "type": "tuple"
        }
      ],
      "stateMutability": "view",
      "type": "function"
    },
    {
      "inputs": [
        {
          "internalType": "bytes32",
          "name": "reservation",
          "type": "bytes32"
        }
      ],
      "name": "getReservation",
      "outputs": [
        {
          "internalType": "uint256",
          "name": "unlock",
          "type": "uint256"
        }
      ],
      "stateMutability": "view",
      "type": "function"
    },
    {
      "inputs": [
        {
          "internalType": "bytes32",
          "name": "orderId",
          "type": "bytes32"
        }
      ],
      "name": "getStatus",
      "outputs": [
        {
          "components": [
            {
              "internalType": "bytes32[]",
              "name": "ticketIds",
              "type": "bytes32[]"
            },
            {
              "internalType": "address[]",
              "name": "claimers",
              "type": "address[]"
            }
          ],
          "internalType": "struct GhoTicket.StatusData",
          "name": "data",
          "type": "tuple"
        }
      ],
      "stateMutability": "view",
      "type": "function"
    },
    {
      "inputs": [
        {
          "internalType": "bytes32",
          "name": "ticketId",
          "type": "bytes32"
        }
      ],
      "name": "getTicket",
      "outputs": [
        {
          "components": [
            {
              "internalType": "bytes32",
              "name": "id",
              "type": "bytes32"
            },
            {
              "internalType": "address",
              "name": "claimer",
              "type": "address"
            },
            {
              "internalType": "uint256",
              "name": "amount",
              "type": "uint256"
            },
            {
              "components": [
                {
                  "internalType": "bytes32",
                  "name": "id",
                  "type": "bytes32"
                },
                {
                  "components": [
                    {
                      "internalType": "address",
                      "name": "creator",
                      "type": "address"
                    },
                    {
                      "internalType": "uint256",
                      "name": "amount",
                      "type": "uint256"
                    },
                    {
                      "internalType": "uint256",
                      "name": "createdAt",
                      "type": "uint256"
                    },
                    {
                      "internalType": "uint256",
                      "name": "deadline",
                      "type": "uint256"
                    },
                    {
                      "internalType": "uint8",
                      "name": "streamed",
                      "type": "uint8"
                    },
                    {
                      "internalType": "uint8",
                      "name": "closed",
                      "type": "uint8"
                    }
                  ],
                  "internalType": "struct GhoTicket.Order",
                  "name": "order",
                  "type": "tuple"
                },
                {
                  "internalType": "uint256",
                  "name": "nbTickets",
                  "type": "uint256"
                }
              ],
              "internalType": "struct GhoTicket.OrderData",
              "name": "order",
              "type": "tuple"
            }
          ],
          "internalType": "struct GhoTicket.TicketData",
          "name": "data",
          "type": "tuple"
        }
      ],
      "stateMutability": "view",
      "type": "function"
    },
    {
      "inputs": [
        {
          "internalType": "bytes32[]",
          "name": "ticketIds",
          "type": "bytes32[]"
        }
      ],
      "name": "getWithdrawnStreamBalances",
      "outputs": [
        {
          "internalType": "uint256[]",
          "name": "withdrawn",
          "type": "uint256[]"
        }
      ],
      "stateMutability": "view",
      "type": "function"
    },
    {
      "inputs": [
        {
          "internalType": "bytes32",
          "name": "ticketId",
          "type": "bytes32"
        }
      ],
      "name": "isClaimed",
      "outputs": [
        {
          "internalType": "bool",
          "name": "",
          "type": "bool"
        }
      ],
      "stateMutability": "view",
      "type": "function"
    },
    {
      "inputs": [
        {
          "components": [
            {
              "internalType": "bytes32",
              "name": "orderId",
              "type": "bytes32"
            },
            {
              "internalType": "bytes32",
              "name": "orderSecret",
              "type": "bytes32"
            },
            {
              "internalType": "bytes32",
              "name": "ticketSecret",
              "type": "bytes32"
            },
            {
              "components": [
                {
                  "internalType": "uint8",
                  "name": "v",
                  "type": "uint8"
                },
                {
                  "internalType": "bytes32",
                  "name": "r",
                  "type": "bytes32"
                },
                {
                  "internalType": "bytes32",
                  "name": "s",
                  "type": "bytes32"
                }
              ],
              "internalType": "struct GhoTicket.Signature",
              "name": "signature",
              "type": "tuple"
            }
          ],
          "internalType": "struct GhoTicket.Ticket",
          "name": "ticket",
          "type": "tuple"
        }
      ],
      "name": "isValid",
      "outputs": [
        {
          "internalType": "bytes32",
          "name": "ticketId",
          "type": "bytes32"
        },
        {
          "internalType": "uint256",
          "name": "amount",
          "type": "uint256"
        },
        {
          "internalType": "uint8",
          "name": "streamed",
          "type": "uint8"
        }
      ],
      "stateMutability": "view",
      "type": "function"
    },
    {
      "inputs": [
        {
          "internalType": "bytes32",
          "name": "reservation",
          "type": "bytes32"
        }
      ],
      "name": "reserveTicket",
      "outputs": [],
      "stateMutability": "nonpayable",
      "type": "function"
    },
    {
      "inputs": [
        {
          "internalType": "bytes32",
          "name": "ticketId",
          "type": "bytes32"
        }
      ],
      "name": "withdrawStream",
      "outputs": [],
      "stateMutability": "nonpayable",
      "type": "function"
    }
  ],
  "bytecode": "0x61016060405234801562000011575f80fd5b50604080518082018252600981526811da1bd51a58dad95d60ba1b602080830191909152825180840190935260018352603160f81b908301529062000057825f62000104565b610120526200006881600162000104565b61014052815160208084019190912060e052815190820120610100524660a052620000f560e05161010051604080517f8b73c3c69bb8fe3d512ecc4cf759cc79239f7b179b0ffacaa9a75d522b39400f60208201529081019290925260608201524660808201523060a08201525f9060c00160405160208183030381529060405280519060200120905090565b60805250503060c05262000363565b5f60208351101562000123576200011b836200013c565b905062000136565b8162000130848262000225565b5060ff90505b92915050565b5f80829050601f8151111562000172578260405163305a27a960e01b8152600401620001699190620002f1565b60405180910390fd5b80516200017f826200033f565b179392505050565b634e487b7160e01b5f52604160045260245ffd5b600181811c90821680620001b057607f821691505b602082108103620001cf57634e487b7160e01b5f52602260045260245ffd5b50919050565b601f8211156200022057805f5260205f20601f840160051c81016020851015620001fc5750805b601f840160051c820191505b818110156200021d575f815560010162000208565b50505b505050565b81516001600160401b0381111562000241576200024162000187565b62000259816200025284546200019b565b84620001d5565b602080601f8311600181146200028f575f8415620002775750858301515b5f19600386901b1c1916600185901b178555620002e9565b5f85815260208120601f198616915b82811015620002bf578886015182559484019460019091019084016200029e565b5085821015620002dd57878501515f19600388901b60f8161c191681555b505060018460011b0185555b505050505050565b5f602080835283518060208501525f5b818110156200031f5785810183015185820160400152820162000301565b505f604082860101526040601f19601f8301168501019250505092915050565b80516020808301519190811015620001cf575f1960209190910360031b1b16919050565b60805160a05160c05160e051610100516101205161014051612608620003b55f395f61177a01525f61174e01525f6116db01525f6116b301525f61160e01525f61163801525f61166201526126085ff3fe608060405234801561000f575f80fd5b5060043610610184575f3560e01c806384b0196e116100dd578063d126199f11610088578063f742e4ac11610063578063f742e4ac14610404578063fb73b1ce14610417578063fc8be6991461042a575f80fd5b8063d126199f1461039d578063d5d863e3146103c5578063ec68555f146103e5575f80fd5b8063b89c3952116100b8578063b89c395214610319578063b8d008f31461034a578063cf77adc81461037d575f80fd5b806384b0196e146102ba578063ae41ebad146102d5578063afcca0fb146102e8575f80fd5b80633eb26e361161013d5780635de28ae0116101185780635de28ae01461025a57806377f07ccf1461027a5780638477a07b1461029a575f80fd5b80633eb26e36146102125780634cf49aa91461021a5780635778472a1461023a575f80fd5b8063302190c91161016d578063302190c9146101d75780633644e515146101f75780633bed6b95146101ff575f80fd5b80630b5676d214610188578063197ac38d1461019d575b5f80fd5b61019b610196366004611d9d565b61043d565b005b6101c47f27aa639898ad79d2a56a58bd13abfd99aaa1e446ed266910237eb2d466ccd66281565b6040519081526020015b60405180910390f35b6101ea6101e5366004611dcf565b6104f8565b6040516101ce9190611dff565b6101c4610525565b61019b61020d366004611d9d565b610533565b6101c4603c81565b61022d610228366004611eb0565b610793565b6040516101ce9190611f8b565b61024d610248366004611d9d565b610859565b6040516101ce9190611f9d565b61026d610268366004611d9d565b610938565b6040516101ce9190612093565b61028d610288366004611d9d565b610a41565b6040516101ce9190612130565b6102ad6102a8366004611eb0565b610a67565b6040516101ce9190612142565b6102c2610abb565b6040516101ce97969594939291906121e7565b61019b6102e3366004612280565b610b19565b6102fb6102f636600461231a565b610d26565b60408051938452602084019290925260ff16908201526060016101ce565b61033a610327366004611d9d565b5f90815260076020526040902054151590565b60405190151581526020016101ce565b61036573c4bf5cbdabe595361438f8c6a187bdc330539c6081565b6040516001600160a01b0390911681526020016101ce565b61039061038b366004611dcf565b610d4d565b6040516101ce91906123bd565b6101c46103ab3660046123ff565b6001600160a01b03165f9081526002602052604090205490565b6103d86103d3366004611d9d565b610dd0565b6040516101ce9190612418565b6101c46103f3366004611d9d565b5f9081526006602052604090205490565b61019b610412366004612437565b610eaa565b6101c46104253660046123ff565b611280565b61019b610438366004611d9d565b6112a6565b5f818152600660205260409020541561048a576040517fe26b6c3a000000000000000000000000000000000000000000000000000000008152600481018290526024015b60405180910390fd5b5f610496603c426124f8565b5f8381526006602052604090208190559050336001600160a01b03167fc2e6e791274f4ca6517553570472956264bb5d03c9b67ea9b0ccd1e3aed81c4183836040516104ec929190918252602082015260400190565b60405180910390a25050565b6001600160a01b0383165f90815260036020526040902060609061051d908484611571565b949350505050565b5f61052e611602565b905090565b5f81815260046020818152604092839020835160c08101855281546001600160a01b0316808252600183015493820193909352600282015494810194909452600381015460608501529091015460ff80821660808501526101009091041660a0830152339190821415806105aa5750428160600151115b806105bb57505f8160a0015160ff16115b156105dc57604051630aa881a960e11b815260048101849052602401610481565b5f8381526005602052604081206105f29061172b565b90505f805b8251811015610655575f801b60075f8584815181106106185761061861250b565b602002602001015181526020019081526020015f205f01541161063c57600161063e565b5f5b61064b9060ff16836124f8565b91506001016105f7565b505f8251828560200151610669919061251f565b6106739190612536565b9050801561076f575f868152600460208190526040918290208101805461ff001916610100179055905163a9059cbb60e01b815273c4bf5cbdabe595361438f8c6a187bdc330539c609163a9059cbb916106e59189918691016001600160a01b03929092168252602082015260400190565b6020604051808303815f875af1158015610701573d5f803e3d5ffd5b505050506040513d601f19601f820116820180604052508101906107259190612555565b50846001600160a01b0316867f0e0cd4d3eaa4898e1ec8edbb7adc18a8fd52571f73419fff122e9d517360eaa18360405161076291815260200190565b60405180910390a361078b565b604051630aa881a960e11b815260048101879052602401610481565b505050505050565b60605f5b82518110156108535760025f60075f8685815181106107b8576107b861250b565b602002602001015181526020019081526020015f206001015f9054906101000a90046001600160a01b03166001600160a01b03166001600160a01b031681526020019081526020015f206001015f8483815181106108185761081861250b565b602002602001015181526020019081526020015f20548282815181106108405761084061250b565b6020908102919091010152600101610797565b50919050565b6108a760408051606080820183525f808352835160c08101855281815260208181018390529481018290529182018190526080820181905260a0820152909182019081526020015f81525090565b60408051606080820183528482525f85815260046020818152858320865160c08101885281546001600160a01b031681526001820154818401526002820154818901526003820154958101959095529091015460ff80821660808601526101009091041660a084015280840192909252858152600590915282902090918201906109309061173e565b905292915050565b60408051808201909152606080825260208201525f8281526005602052604090206109629061172b565b8082525167ffffffffffffffff81111561097e5761097e611e42565b6040519080825280602002602001820160405280156109a7578160200160208202803683370190505b5060208201525f5b815151811015610853575f60075f845f015184815181106109d2576109d261250b565b60209081029190910181015182528101919091526040015f20600101546001600160a01b031690508015610a38578083602001518381518110610a1757610a1761250b565b60200260200101906001600160a01b031690816001600160a01b0316815250505b506001016109af565b610a49611d29565b610a5282610859565b8152610a5d82610938565b6020820152919050565b60605f5b825181101561085357610a96838281518110610a8957610a8961250b565b6020026020010151610a41565b828281518110610aa857610aa861250b565b6020908102919091010152600101610a6b565b5f6060805f805f6060610acc611747565b610ad4611773565b604080515f808252602082019092527f0f000000000000000000000000000000000000000000000000000000000000009b939a50919850469750309650945092509050565b602081810151604080840151905133606081901b6bffffffffffffffffffffffff191694820194909452603481019290925260548201525f9060740160408051601f1981840301815291815281516020928301205f8181526006909352912054909150801580610b8857508042105b15610bc2576040517f4f31f9ad00000000000000000000000000000000000000000000000000000000815260048101839052602401610481565b5f805f610bce876117a0565b6040805180820182528b5181526001600160a01b038b811660208084018281525f89815260078352868120955186559051600190950180547fffffffffffffffffffffffff0000000000000000000000000000000000000000169590941694909417909255825260039052209295509093509150610c4c9084611ac4565b508060ff165f03610cdb5760405163a9059cbb60e01b81526001600160a01b03871660048201526024810183905273c4bf5cbdabe595361438f8c6a187bdc330539c609063a9059cbb906044016020604051808303815f875af1158015610cb5573d5f803e3d5ffd5b505050506040513d601f19601f82011682018060405250810190610cd99190612555565b505b86516040518381526001600160a01b0388169185917fdbaf21cad9ab5b3678c5ec10ae109afd74acb5208ff47f562d77eb09183eeb039060200160405180910390a450505050505050565b5f8080610d40610d3b36869003860186612280565b6117a0565b9250925092509193909250565b6001600160a01b0383165f90815260036020526040812060609190610d73908585611571565b90505f5b8151811015610dc757610da2828281518110610d9557610d9561250b565b6020026020010151610dd0565b838281518110610db457610db461250b565b6020908102919091010152600101610d77565b50509392505050565b610e3960408051608080820183525f8083526020808401829052838501829052845160608181018752838252865160c08101885284815280840185905280880185905280820185905294850184905260a085018490529181019390935293820152909182015290565b5f82815260076020908152604091829020825180840190935280548352600101546001600160a01b039081168383019081528585525116908301528051610e7f90610859565b60608301819052604081015160209182015190910151610e9f9190612536565b604083015250919050565b861580610eb657504286105b80610ec4575060018560ff16115b80610ecd575082155b15610f04576040517faf61069300000000000000000000000000000000000000000000000000000000815260040160405180910390fd5b3373c4bf5cbdabe595361438f8c6a187bdc330539c6063d505accf82308b86610f3060208a018a612574565b604080517fffffffff0000000000000000000000000000000000000000000000000000000060e089901b1681526001600160a01b0396871660048201529590941660248601526044850192909252606484015260ff166084830152602087013560a483015286013560c482015260e4015f604051808303815f87803b158015610fb7575f80fd5b505af1158015610fc9573d5f803e3d5ffd5b50506040517f23b872dd0000000000000000000000000000000000000000000000000000000081526001600160a01b0384166004820152306024820152604481018b905273c4bf5cbdabe595361438f8c6a187bdc330539c6092506323b872dd91506064016020604051808303815f875af115801561104a573d5f803e3d5ffd5b505050506040513d601f19601f8201168201806040525081019061106e9190612555565b506001600160a01b0381165f9081526002602090815260408083205490516bffffffffffffffffffffffff19606086901b16928101929092526034820181905291906054016040516020818303038152906040528051906020012090508160016110d891906124f8565b60025f856001600160a01b03166001600160a01b031681526020019081526020015f205f01819055506040518060c00160405280846001600160a01b031681526020018b81526020014281526020018a81526020018960ff1681526020015f60ff1681525060045f8381526020019081526020015f205f820151815f015f6101000a8154816001600160a01b0302191690836001600160a01b031602179055506020820151816001015560408201518160020155606082015181600301556080820151816004015f6101000a81548160ff021916908360ff16021790555060a08201518160040160016101000a81548160ff021916908360ff1602179055509050505f60055f8381526020019081526020015f2090505f5b8781101561122c5761122389898381811061120d5761120d61250b565b9050602002013583611ac490919063ffffffff16565b506001016111f0565b50604080518c8152602081018990526001600160a01b0386169184917fca21890c07259113ea29255a6bdb21ca5e46cdf0bc0222904d499136922dd030910160405180910390a35050505050505050505050565b6001600160a01b0381165f9081526003602052604081206112a09061173e565b92915050565b5f81815260076020908152604091829020825180840190935280548352600101546001600160a01b031690820181905233919082146112fb57604051630aa881a960e11b815260048101849052602401610481565b80515f908152600460208181526040808420815160c08101835281546001600160a01b03168152600182015493810193909352600281015491830191909152600381015460608301529091015460ff808216608084018190526101009092041660a083015290910361138357604051630aa881a960e11b815260048101859052602401610481565b81515f90815260056020526040812061139b9061173e565b82602001516113aa9190612536565b6001600160a01b0385165f9081526002602090815260408083208984526001019091528120546060850151929350914211156113f1576113ea828461258d565b9050611440565b5f846040015142611402919061258d565b90505f85604001518660600151611419919061258d565b90508381611427848861251f565b6114319190612536565b61143b919061258d565b925050505b801561154c576001600160a01b0386165f9081526002602090815260408083208a84526001019091528120805483929061147b9084906124f8565b909155505060405163a9059cbb60e01b81526001600160a01b03871660048201526024810182905273c4bf5cbdabe595361438f8c6a187bdc330539c609063a9059cbb906044016020604051808303815f875af11580156114de573d5f803e3d5ffd5b505050506040513d601f19601f820116820180604052508101906115029190612555565b50856001600160a01b0316877f76c3b0b8c255c4c2c7372a000da81ba4dc24fe01e03ed15aad8ccd9bd04792628360405161153f91815260200190565b60405180910390a3611568565b604051630aa881a960e11b815260048101889052602401610481565b50505050505050565b60608167ffffffffffffffff81111561158c5761158c611e42565b6040519080825280602002602001820160405280156115b5578160200160208202803683370190505b5090505f5b828110156115fa576115d5856115d083876124f8565b611acf565b8282815181106115e7576115e761250b565b60209081029190910101526001016115ba565b509392505050565b5f306001600160a01b037f00000000000000000000000000000000000000000000000000000000000000001614801561165a57507f000000000000000000000000000000000000000000000000000000000000000046145b1561168457507f000000000000000000000000000000000000000000000000000000000000000090565b61052e604080517f8b73c3c69bb8fe3d512ecc4cf759cc79239f7b179b0ffacaa9a75d522b39400f60208201527f0000000000000000000000000000000000000000000000000000000000000000918101919091527f000000000000000000000000000000000000000000000000000000000000000060608201524660808201523060a08201525f9060c00160405160208183030381529060405280519060200120905090565b60605f61173783611ada565b9392505050565b5f6112a0825490565b606061052e7f00000000000000000000000000000000000000000000000000000000000000005f611b33565b606061052e7f00000000000000000000000000000000000000000000000000000000000000006001611b33565b5f805f836020015184604001516040516020016117c7929190918252602082015260400190565b60408051601f19818403018152918152815160209283012086515f908152600590935291209093506117f98185611bdc565b61183c5784516040517f3e0266b8000000000000000000000000000000000000000000000000000000008152600481019190915260248101859052604401610481565b5f848152600760205260409020541561188e5784516040517fac77c46c000000000000000000000000000000000000000000000000000000008152600481019190915260248101859052604401610481565b84515f90815260046020818152604092839020835160c08101855281546001600160a01b03168152600182015492810192909252600281015493820193909352600383015460608201819052929091015460ff80821660808401526101009091041660a08201529042111561194657855160608201516040517fdf9c7e250000000000000000000000000000000000000000000000000000000081526004810192909252602482018790526044820152606401610481565b805186516020808901516040515f946001946119c4946119a9947f27aa639898ad79d2a56a58bd13abfd99aaa1e446ed266910237eb2d466ccd662949091019384526001600160a01b039290921660208401526040830152606082015260800190565b60405160208183030381529060405280519060200120611bf3565b6060890151805160208083015160409384015184515f815290920193849052611a09949390919093845260ff9290921660208401526040830152606082015260800190565b6020604051602081039080840390855afa158015611a29573d5f803e3d5ffd5b505050602060405103519050815f01516001600160a01b0316816001600160a01b031614611a995781516040517f7ba5ffb50000000000000000000000000000000000000000000000000000000081526001600160a01b0391821660048201529082166024820152604401610481565b611aa28361173e565b8260200151611ab19190612536565b9450816080015193505050509193909250565b5f6117378383611c3a565b5f6117378383611c86565b6060815f01805480602002602001604051908101604052809291908181526020018280548015611b2757602002820191905f5260205f20905b815481526020019060010190808311611b13575b50505050509050919050565b606060ff8314611b4d57611b4683611cac565b90506112a0565b818054611b59906125a0565b80601f0160208091040260200160405190810160405280929190818152602001828054611b85906125a0565b8015611bd05780601f10611ba757610100808354040283529160200191611bd0565b820191905f5260205f20905b815481529060010190602001808311611bb357829003601f168201915b505050505090506112a0565b5f8181526001830160205260408120541515611737565b5f6112a0611bff611602565b836040517f19010000000000000000000000000000000000000000000000000000000000008152600281019290925260228201526042902090565b5f818152600183016020526040812054611c7f57508154600181810184555f8481526020808220909301849055845484825282860190935260409020919091556112a0565b505f6112a0565b5f825f018281548110611c9b57611c9b61250b565b905f5260205f200154905092915050565b60605f611cb883611ce9565b6040805160208082528183019092529192505f91906020820181803683375050509182525060208101929092525090565b5f60ff8216601f8111156112a0576040517fb3512b0c00000000000000000000000000000000000000000000000000000000815260040160405180910390fd5b6040805160a080820183525f828401818152845160c0810186528281526020810183905294850182905260608581018390526080808701849052938601839052840194909452908201529081908152602001611d98604051806040016040528060608152602001606081525090565b905290565b5f60208284031215611dad575f80fd5b5035919050565b80356001600160a01b0381168114611dca575f80fd5b919050565b5f805f60608486031215611de1575f80fd5b611dea84611db4565b95602085013595506040909401359392505050565b602080825282518282018190525f9190848201906040850190845b81811015611e3657835183529284019291840191600101611e1a565b50909695505050505050565b634e487b7160e01b5f52604160045260245ffd5b6040516060810167ffffffffffffffff81118282101715611e7957611e79611e42565b60405290565b604051601f8201601f1916810167ffffffffffffffff81118282101715611ea857611ea8611e42565b604052919050565b5f6020808385031215611ec1575f80fd5b823567ffffffffffffffff80821115611ed8575f80fd5b818501915085601f830112611eeb575f80fd5b813581811115611efd57611efd611e42565b8060051b9150611f0e848301611e7f565b8181529183018401918481019088841115611f27575f80fd5b938501935b83851015611f4557843582529385019390850190611f2c565b98975050505050505050565b5f815180845260208085019450602084015f5b83811015611f8057815187529582019590820190600101611f64565b509495945050505050565b602081525f6117376020830184611f51565b61010081016112a082848051825260208101516001600160a01b03815116602084015260208101516040840152604081015160608401526060810151608084015260ff60808201511660a084015260ff60a08201511660c084015250604081015160e08301525050565b8051604080845281519084018190525f91602091908201906060860190845b8181101561204257835183529284019291840191600101612026565b50508483015186820387850152805180835290840192505f918401905b808310156120885783516001600160a01b0316825292840192600192909201919084019061205f565b509695505050505050565b602081525f6117376020830184612007565b5f61012061210f8484518051825260208101516001600160a01b03815116602084015260208101516040840152604081015160608401526060810151608084015260ff60808201511660a084015260ff60a08201511660c084015250604081015160e08301525050565b60208301518161010086015261212782860182612007565b95945050505050565b602081525f61173760208301846120a5565b5f60208083016020845280855180835260408601915060408160051b8701019250602087015f5b8281101561219757603f198886030184526121858583516120a5565b94509285019290850190600101612169565b5092979650505050505050565b5f81518084525f5b818110156121c8576020818501810151868301820152016121ac565b505f602082860101526020601f19601f83011685010191505092915050565b7fff000000000000000000000000000000000000000000000000000000000000008816815260e060208201525f61222160e08301896121a4565b828103604084015261223381896121a4565b90508660608401526001600160a01b03861660808401528460a084015282810360c08401526122628185611f51565b9a9950505050505050505050565b803560ff81168114611dca575f80fd5b5f81830360c0811215612291575f80fd5b6040516080810181811067ffffffffffffffff821117156122b4576122b4611e42565b80604052508335815260208401356020820152604084013560408201526060605f19830112156122e2575f80fd5b6122ea611e56565b91506122f860608501612270565b82526080840135602083015260a0909301356040820152606083015250919050565b5f60c08284031215610853575f80fd5b805182526001600160a01b0360208201511660208301526040810151604083015260608101516123b860608401828051825260208101516001600160a01b03815116602084015260208101516040840152604081015160608401526060810151608084015260ff60808201511660a084015260ff60a08201511660c084015250604081015160e08301525050565b505050565b602080825282518282018190525f9190848201906040850190845b81811015611e36576123eb83855161232a565b9284019261016092909201916001016123d8565b5f6020828403121561240f575f80fd5b61173782611db4565b61016081016112a0828461232a565b5f60608284031215610853575f80fd5b5f805f805f805f610100888a03121561244e575f80fd5b873596506020880135955061246560408901612270565b9450606088013567ffffffffffffffff80821115612481575f80fd5b818a0191508a601f830112612494575f80fd5b8135818111156124a2575f80fd5b8b60208260051b85010111156124b6575f80fd5b6020830196508095505050506124cf8960808a01612427565b915060e0880135905092959891949750929550565b634e487b7160e01b5f52601160045260245ffd5b808201808211156112a0576112a06124e4565b634e487b7160e01b5f52603260045260245ffd5b80820281158282048414176112a0576112a06124e4565b5f8261255057634e487b7160e01b5f52601260045260245ffd5b500490565b5f60208284031215612565575f80fd5b81518015158114611737575f80fd5b5f60208284031215612584575f80fd5b61173782612270565b818103818111156112a0576112a06124e4565b600181811c908216806125b457607f821691505b60208210810361085357634e487b7160e01b5f52602260045260245ffdfea264697066735822122011dbd89e5912bccba203e34fa3ce4f91f27db8ec2e17b769f18976f6ab99296864736f6c63430008170033",
  "linkReferences": {},
  "deployedLinkReferences": {}
}