{
  "_format": "hh-sol-artifact-1",
  "contractName": "GhoTicket",
  "sourceName": "contracts/GhoTicket.sol",
  "abi": [
    {
      "inputs": [],
      "stateMutability": "nonpayable",
      "type": "constructor"
    },
    {
      "inputs": [],
      "name": "InvalidOrder",
      "type": "error"
    },
    {
      "inputs": [],
      "name": "InvalidShortString",
      "type": "error"
    },
    {
      "inputs": [
        {
          "internalType": "address",
          "name": "creator",
          "type": "address"
        },
        {
          "internalType": "address",
          "name": "signer",
          "type": "address"
        }
      ],
      "name": "InvalidSigner",
      "type": "error"
    },
    {
      "inputs": [
        {
          "internalType": "bytes32",
          "name": "id",
          "type": "bytes32"
        }
      ],
      "name": "InvalidWithdraw",
      "type": "error"
    },
    {
      "inputs": [
        {
          "internalType": "bytes32",
          "name": "reservation",
          "type": "bytes32"
        }
      ],
      "name": "ReservationNotChanged",
      "type": "error"
    },
    {
      "inputs": [
        {
          "internalType": "bytes32",
          "name": "reservation",
          "type": "bytes32"
        }
      ],
      "name": "ReservationNotFound",
      "type": "error"
    },
    {
      "inputs": [
        {
          "internalType": "string",
          "name": "str",
          "type": "string"
        }
      ],
      "name": "StringTooLong",
      "type": "error"
    },
    {
      "inputs": [
        {
          "internalType": "bytes32",
          "name": "orderId",
          "type": "bytes32"
        },
        {
          "internalType": "bytes32",
          "name": "ticketId",
          "type": "bytes32"
        }
      ],
      "name": "TicketAlreadyClaimed",
      "type": "error"
    },
    {
      "inputs": [
        {
          "internalType": "bytes32",
          "name": "orderId",
          "type": "bytes32"
        },
        {
          "internalType": "bytes32",
          "name": "ticketId",
          "type": "bytes32"
        },
        {
          "internalType": "uint256",
          "name": "deadline",
          "type": "uint256"
        }
      ],
      "name": "TicketExpired",
      "type": "error"
    },
    {
      "inputs": [
        {
          "internalType": "bytes32",
          "name": "orderId",
          "type": "bytes32"
        },
        {
          "internalType": "bytes32",
          "name": "ticketId",
          "type": "bytes32"
        }
      ],
      "name": "TicketNotFound",
      "type": "error"
    },
    {
      "anonymous": false,
      "inputs": [],
      "name": "EIP712DomainChanged",
      "type": "event"
    },
    {
      "anonymous": false,
      "inputs": [
        {
          "indexed": true,
          "internalType": "bytes32",
          "name": "orderId",
          "type": "bytes32"
        },
        {
          "indexed": true,
          "internalType": "address",
          "name": "creator",
          "type": "address"
        },
        {
          "indexed": false,
          "internalType": "uint256",
          "name": "amount",
          "type": "uint256"
        }
      ],
      "name": "OrderClosed",
      "type": "event"
    },
    {
      "anonymous": false,
      "inputs": [
        {
          "indexed": true,
          "internalType": "bytes32",
          "name": "orderId",
          "type": "bytes32"
        },
        {
          "indexed": true,
          "internalType": "address",
          "name": "creator",
          "type": "address"
        },
        {
          "indexed": false,
          "internalType": "uint256",
          "name": "amount",
          "type": "uint256"
        },
        {
          "indexed": false,
          "internalType": "uint256",
          "name": "nbTickets",
          "type": "uint256"
        }
      ],
      "name": "OrderCreated",
      "type": "event"
    },
    {
      "anonymous": false,
      "inputs": [
        {
          "indexed": true,
          "internalType": "bytes32",
          "name": "ticketId",
          "type": "bytes32"
        },
        {
          "indexed": true,
          "internalType": "address",
          "name": "claimer",
          "type": "address"
        },
        {
          "indexed": false,
          "internalType": "uint256",
          "name": "amount",
          "type": "uint256"
        }
      ],
      "name": "StreamWithdrawn",
      "type": "event"
    },
    {
      "anonymous": false,
      "inputs": [
        {
          "indexed": true,
          "internalType": "bytes32",
          "name": "orderId",
          "type": "bytes32"
        },
        {
          "indexed": true,
          "internalType": "bytes32",
          "name": "ticketId",
          "type": "bytes32"
        },
        {
          "indexed": true,
          "internalType": "address",
          "name": "claimer",
          "type": "address"
        },
        {
          "indexed": false,
          "internalType": "uint256",
          "name": "amount",
          "type": "uint256"
        }
      ],
      "name": "TicketClaimed",
      "type": "event"
    },
    {
      "anonymous": false,
      "inputs": [
        {
          "indexed": true,
          "internalType": "address",
          "name": "claimer",
          "type": "address"
        },
        {
          "indexed": false,
          "internalType": "bytes32",
          "name": "reservation",
          "type": "bytes32"
        },
        {
          "indexed": false,
          "internalType": "uint256",
          "name": "timestamp",
          "type": "uint256"
        }
      ],
      "name": "TicketReserved",
      "type": "event"
    },
    {
      "inputs": [],
      "name": "DOMAIN_SEPARATOR",
      "outputs": [
        {
          "internalType": "bytes32",
          "name": "",
          "type": "bytes32"
        }
      ],
      "stateMutability": "view",
      "type": "function"
    },
    {
      "inputs": [],
      "name": "GHO",
      "outputs": [
        {
          "internalType": "contract ERC20Permit",
          "name": "",
          "type": "address"
        }
      ],
      "stateMutability": "view",
      "type": "function"
    },
    {
      "inputs": [],
      "name": "PERMIT_TICKET_TYPEHASH",
      "outputs": [
        {
          "internalType": "bytes32",
          "name": "",
          "type": "bytes32"
        }
      ],
      "stateMutability": "view",
      "type": "function"
    },
    {
      "inputs": [],
      "name": "SAFETY_DELAY",
      "outputs": [
        {
          "internalType": "uint256",
          "name": "",
          "type": "uint256"
        }
      ],
      "stateMutability": "view",
      "type": "function"
    },
    {
      "inputs": [
        {
          "components": [
            {
              "internalType": "bytes32",
              "name": "orderId",
              "type": "bytes32"
            },
            {
              "internalType": "bytes32",
              "name": "orderSecret",
              "type": "bytes32"
            },
            {
              "internalType": "bytes32",
              "name": "ticketSecret",
              "type": "bytes32"
            },
            {
              "components": [
                {
                  "internalType": "uint8",
                  "name": "v",
                  "type": "uint8"
                },
                {
                  "internalType": "bytes32",
                  "name": "r",
                  "type": "bytes32"
                },
                {
                  "internalType": "bytes32",
                  "name": "s",
                  "type": "bytes32"
                }
              ],
              "internalType": "struct GhoTicket.Signature",
              "name": "signature",
              "type": "tuple"
            }
          ],
          "internalType": "struct GhoTicket.Ticket",
          "name": "ticket",
          "type": "tuple"
        }
      ],
      "name": "claimTicket",
      "outputs": [],
      "stateMutability": "nonpayable",
      "type": "function"
    },
    {
      "inputs": [
        {
          "internalType": "bytes32",
          "name": "orderId",
          "type": "bytes32"
        }
      ],
      "name": "closeOrder",
      "outputs": [],
      "stateMutability": "nonpayable",
      "type": "function"
    },
    {
      "inputs": [
        {
          "internalType": "uint256",
          "name": "amount",
          "type": "uint256"
        },
        {
          "internalType": "uint256",
          "name": "deadline",
          "type": "uint256"
        },
        {
          "internalType": "uint8",
          "name": "streamed",
          "type": "uint8"
        },
        {
          "internalType": "bytes32[]",
          "name": "tickets",
          "type": "bytes32[]"
        },
        {
          "components": [
            {
              "internalType": "uint8",
              "name": "v",
              "type": "uint8"
            },
            {
              "internalType": "bytes32",
              "name": "r",
              "type": "bytes32"
            },
            {
              "internalType": "bytes32",
              "name": "s",
              "type": "bytes32"
            }
          ],
          "internalType": "struct GhoTicket.Signature",
          "name": "signature",
          "type": "tuple"
        }
      ],
      "name": "createOrder",
      "outputs": [],
      "stateMutability": "nonpayable",
      "type": "function"
    },
    {
      "inputs": [],
      "name": "eip712Domain",
      "outputs": [
        {
          "internalType": "bytes1",
          "name": "fields",
          "type": "bytes1"
        },
        {
          "internalType": "string",
          "name": "name",
          "type": "string"
        },
        {
          "internalType": "string",
          "name": "version",
          "type": "string"
        },
        {
          "internalType": "uint256",
          "name": "chainId",
          "type": "uint256"
        },
        {
          "internalType": "address",
          "name": "verifyingContract",
          "type": "address"
        },
        {
          "internalType": "bytes32",
          "name": "salt",
          "type": "bytes32"
        },
        {
          "internalType": "uint256[]",
          "name": "extensions",
          "type": "uint256[]"
        }
      ],
      "stateMutability": "view",
      "type": "function"
    },
    {
      "inputs": [
        {
          "internalType": "address",
          "name": "addr",
          "type": "address"
        }
      ],
      "name": "getAccountNonce",
      "outputs": [
        {
          "internalType": "uint256",
          "name": "nonce",
          "type": "uint256"
        }
      ],
      "stateMutability": "view",
      "type": "function"
    },
    {
      "inputs": [
        {
          "internalType": "bytes32",
          "name": "orderId",
          "type": "bytes32"
        }
      ],
      "name": "getOrder",
      "outputs": [
        {
          "components": [
            {
              "internalType": "bytes32",
              "name": "id",
              "type": "bytes32"
            },
            {
              "components": [
                {
                  "internalType": "address",
                  "name": "creator",
                  "type": "address"
                },
                {
                  "internalType": "uint256",
                  "name": "amount",
                  "type": "uint256"
                },
                {
                  "internalType": "uint256",
                  "name": "createdAt",
                  "type": "uint256"
                },
                {
                  "internalType": "uint256",
                  "name": "deadline",
                  "type": "uint256"
                },
                {
                  "internalType": "uint8",
                  "name": "streamed",
                  "type": "uint8"
                },
                {
                  "internalType": "uint8",
                  "name": "closed",
                  "type": "uint8"
                }
              ],
              "internalType": "struct GhoTicket.Order",
              "name": "order",
              "type": "tuple"
            },
            {
              "internalType": "uint256",
              "name": "nbTickets",
              "type": "uint256"
            }
          ],
          "internalType": "struct GhoTicket.OrderData",
          "name": "data",
          "type": "tuple"
        }
      ],
      "stateMutability": "view",
      "type": "function"
    },
    {
      "inputs": [
        {
          "internalType": "bytes32",
          "name": "orderId",
          "type": "bytes32"
        }
      ],
      "name": "getOrderFull",
      "outputs": [
        {
          "components": [
            {
              "components": [
                {
                  "internalType": "bytes32",
                  "name": "id",
                  "type": "bytes32"
                },
                {
                  "components": [
                    {
                      "internalType": "address",
                      "name": "creator",
                      "type": "address"
                    },
                    {
                      "internalType": "uint256",
                      "name": "amount",
                      "type": "uint256"
                    },
                    {
                      "internalType": "uint256",
                      "name": "createdAt",
                      "type": "uint256"
                    },
                    {
                      "internalType": "uint256",
                      "name": "deadline",
                      "type": "uint256"
                    },
                    {
                      "internalType": "uint8",
                      "name": "streamed",
                      "type": "uint8"
                    },
                    {
                      "internalType": "uint8",
                      "name": "closed",
                      "type": "uint8"
                    }
                  ],
                  "internalType": "struct GhoTicket.Order",
                  "name": "order",
                  "type": "tuple"
                },
                {
                  "internalType": "uint256",
                  "name": "nbTickets",
                  "type": "uint256"
                }
              ],
              "internalType": "struct GhoTicket.OrderData",
              "name": "order",
              "type": "tuple"
            },
            {
              "components": [
                {
                  "internalType": "bytes32[]",
                  "name": "ticketIds",
                  "type": "bytes32[]"
                },
                {
                  "internalType": "address[]",
                  "name": "claimers",
                  "type": "address[]"
                }
              ],
              "internalType": "struct GhoTicket.StatusData",
              "name": "status",
              "type": "tuple"
            }
          ],
          "internalType": "struct GhoTicket.OrderFullData",
          "name": "data",
          "type": "tuple"
        }
      ],
      "stateMutability": "view",
      "type": "function"
    },
    {
      "inputs": [
        {
          "internalType": "bytes32",
          "name": "orderId",
          "type": "bytes32"
        }
      ],
      "name": "getStatus",
      "outputs": [
        {
          "components": [
            {
              "internalType": "bytes32[]",
              "name": "ticketIds",
              "type": "bytes32[]"
            },
            {
              "internalType": "address[]",
              "name": "claimers",
              "type": "address[]"
            }
          ],
          "internalType": "struct GhoTicket.StatusData",
          "name": "data",
          "type": "tuple"
        }
      ],
      "stateMutability": "view",
      "type": "function"
    },
    {
      "inputs": [
        {
          "internalType": "bytes32",
          "name": "ticketId",
          "type": "bytes32"
        }
      ],
      "name": "getTicket",
      "outputs": [
        {
          "components": [
            {
              "internalType": "bytes32",
              "name": "id",
              "type": "bytes32"
            },
            {
              "internalType": "address",
              "name": "claimer",
              "type": "address"
            },
            {
              "internalType": "uint256",
              "name": "amount",
              "type": "uint256"
            },
            {
              "components": [
                {
                  "internalType": "bytes32",
                  "name": "id",
                  "type": "bytes32"
                },
                {
                  "components": [
                    {
                      "internalType": "address",
                      "name": "creator",
                      "type": "address"
                    },
                    {
                      "internalType": "uint256",
                      "name": "amount",
                      "type": "uint256"
                    },
                    {
                      "internalType": "uint256",
                      "name": "createdAt",
                      "type": "uint256"
                    },
                    {
                      "internalType": "uint256",
                      "name": "deadline",
                      "type": "uint256"
                    },
                    {
                      "internalType": "uint8",
                      "name": "streamed",
                      "type": "uint8"
                    },
                    {
                      "internalType": "uint8",
                      "name": "closed",
                      "type": "uint8"
                    }
                  ],
                  "internalType": "struct GhoTicket.Order",
                  "name": "order",
                  "type": "tuple"
                },
                {
                  "internalType": "uint256",
                  "name": "nbTickets",
                  "type": "uint256"
                }
              ],
              "internalType": "struct GhoTicket.OrderData",
              "name": "order",
              "type": "tuple"
            }
          ],
          "internalType": "struct GhoTicket.TicketData",
          "name": "data",
          "type": "tuple"
        }
      ],
      "stateMutability": "view",
      "type": "function"
    },
    {
      "inputs": [
        {
          "internalType": "bytes32",
          "name": "ticketId",
          "type": "bytes32"
        }
      ],
      "name": "isClaimed",
      "outputs": [
        {
          "internalType": "bool",
          "name": "",
          "type": "bool"
        }
      ],
      "stateMutability": "view",
      "type": "function"
    },
    {
      "inputs": [
        {
          "components": [
            {
              "internalType": "bytes32",
              "name": "orderId",
              "type": "bytes32"
            },
            {
              "internalType": "bytes32",
              "name": "orderSecret",
              "type": "bytes32"
            },
            {
              "internalType": "bytes32",
              "name": "ticketSecret",
              "type": "bytes32"
            },
            {
              "components": [
                {
                  "internalType": "uint8",
                  "name": "v",
                  "type": "uint8"
                },
                {
                  "internalType": "bytes32",
                  "name": "r",
                  "type": "bytes32"
                },
                {
                  "internalType": "bytes32",
                  "name": "s",
                  "type": "bytes32"
                }
              ],
              "internalType": "struct GhoTicket.Signature",
              "name": "signature",
              "type": "tuple"
            }
          ],
          "internalType": "struct GhoTicket.Ticket",
          "name": "ticket",
          "type": "tuple"
        }
      ],
      "name": "isValid",
      "outputs": [
        {
          "internalType": "bytes32",
          "name": "ticketId",
          "type": "bytes32"
        },
        {
          "internalType": "uint256",
          "name": "amount",
          "type": "uint256"
        },
        {
          "internalType": "uint8",
          "name": "streamed",
          "type": "uint8"
        }
      ],
      "stateMutability": "view",
      "type": "function"
    },
    {
      "inputs": [
        {
          "internalType": "bytes32",
          "name": "reservation",
          "type": "bytes32"
        }
      ],
      "name": "reserveTicket",
      "outputs": [],
      "stateMutability": "nonpayable",
      "type": "function"
    },
    {
      "inputs": [
        {
          "internalType": "bytes32",
          "name": "ticketId",
          "type": "bytes32"
        }
      ],
      "name": "withdrawStream",
      "outputs": [],
      "stateMutability": "nonpayable",
      "type": "function"
    }
  ],
  "bytecode": "0x61016060405234801562000011575f80fd5b50604080518082018252600981526811da1bd51a58dad95d60ba1b60208083019190915282518084019093526005835264616c70686160d81b90830152906200005b825f62000108565b610120526200006c81600162000108565b61014052815160208084019190912060e052815190820120610100524660a052620000f960e05161010051604080517f8b73c3c69bb8fe3d512ecc4cf759cc79239f7b179b0ffacaa9a75d522b39400f60208201529081019290925260608201524660808201523060a08201525f9060c00160405160208183030381529060405280519060200120905090565b60805250503060c05262000367565b5f60208351101562000127576200011f8362000140565b90506200013a565b8162000134848262000229565b5060ff90505b92915050565b5f80829050601f8151111562000176578260405163305a27a960e01b81526004016200016d9190620002f5565b60405180910390fd5b8051620001838262000343565b179392505050565b634e487b7160e01b5f52604160045260245ffd5b600181811c90821680620001b457607f821691505b602082108103620001d357634e487b7160e01b5f52602260045260245ffd5b50919050565b601f8211156200022457805f5260205f20601f840160051c81016020851015620002005750805b601f840160051c820191505b8181101562000221575f81556001016200020c565b50505b505050565b81516001600160401b038111156200024557620002456200018b565b6200025d816200025684546200019f565b84620001d9565b602080601f83116001811462000293575f84156200027b5750858301515b5f19600386901b1c1916600185901b178555620002ed565b5f85815260208120601f198616915b82811015620002c357888601518255948401946001909101908401620002a2565b5085821015620002e157878501515f19600388901b60f8161c191681555b505060018460011b0185555b505050505050565b5f602080835283518060208501525f5b81811015620003235785810183015185820160400152820162000305565b505f604082860101526040601f19601f8301168501019250505092915050565b80516020808301519190811015620001d3575f1960209190910360031b1b16919050565b60805160a05160c05160e05161010051610120516101405161201f620003b95f395f61131301525f6112e701525f61126e01525f61124601525f6111a101525f6111cb01525f6111f5015261201f5ff3fe608060405234801561000f575f80fd5b5060043610610115575f3560e01c8063ae41ebad116100ad578063b8d008f31161007d578063d5d863e311610063578063d5d863e3146102da578063e503516f146102fa578063fc8be6991461030d575f80fd5b8063b8d008f31461027f578063d126199f146102b2575f80fd5b8063ae41ebad146101e3578063afcca0fb146101f6578063b83a63ba14610227578063b89c39521461024e575f80fd5b80633eb26e36116100e85780633eb26e36146101805780635778472a146101885780635de28ae0146101a857806384b0196e146101c8575f80fd5b80630b5676d21461011957806323fcabca1461012e5780633644e515146101575780633bed6b951461016d575b5f80fd5b61012c6101273660046119cc565b610320565b005b61014161013c3660046119cc565b6103bc565b60405161014e9190611a6f565b60405180910390f35b61015f6103e2565b60405190815260200161014e565b61012c61017b3660046119cc565b6103f0565b61015f603c81565b61019b6101963660046119cc565b610644565b60405161014e9190611b00565b6101bb6101b63660046119cc565b610723565b60405161014e9190611b6a565b6101d0610832565b60405161014e9796959493929190611bbf565b61012c6101f1366004611cd0565b610890565b610209610204366004611d76565b6109f3565b60408051938452602084019290925260ff169082015260600161014e565b61015f7fc9569bc389629bd63269af73dda8915116ce58858c48577079dbd2a8050711fd81565b61026f61025c3660046119cc565b5f90815260076020526040902054151590565b604051901515815260200161014e565b61029a73c4bf5cbdabe595361438f8c6a187bdc330539c6081565b6040516001600160a01b03909116815260200161014e565b61015f6102c0366004611d86565b6001600160a01b03165f9081526002602052604090205490565b6102ed6102e83660046119cc565b610a1a565b60405161014e9190611dac565b61012c610308366004611e59565b610af4565b61012c61031b3660046119cc565b610eca565b5f818152600660205260409020541561036d576040517fe26b6c3a000000000000000000000000000000000000000000000000000000008152600481018290526024015b60405180910390fd5b5f81815260066020908152604091829020429081905582518481529182015233917fc2e6e791274f4ca6517553570472956264bb5d03c9b67ea9b0ccd1e3aed81c41910160405180910390a250565b6103c4611958565b6103cd82610644565b81526103d882610723565b6020820152919050565b5f6103eb611195565b905090565b5f81815260046020818152604092839020835160c08101855281546001600160a01b0316808252600183015493820193909352600282015494810194909452600381015460608501529091015460ff80821660808501526101009091041660a0830152339190821415806104675750428160600151115b8061047857505f8160a0015160ff16115b1561049957604051630aa881a960e11b815260048101849052602401610364565b5f8381526005602052604081206104af906112be565b90505f805b8251811015610512575f801b60075f8584815181106104d5576104d5611efb565b602002602001015181526020019081526020015f205f0154116104f95760016104fb565b5f5b6105089060ff1683611f23565b91506001016104b4565b505f8184602001516105249190611f36565b90508015610620575f868152600460208190526040918290208101805461ff001916610100179055905163a9059cbb60e01b815273c4bf5cbdabe595361438f8c6a187bdc330539c609163a9059cbb916105969189918691016001600160a01b03929092168252602082015260400190565b6020604051808303815f875af11580156105b2573d5f803e3d5ffd5b505050506040513d601f19601f820116820180604052508101906105d69190611f55565b50846001600160a01b0316867f0e0cd4d3eaa4898e1ec8edbb7adc18a8fd52571f73419fff122e9d517360eaa18360405161061391815260200190565b60405180910390a361063c565b604051630aa881a960e11b815260048101879052602401610364565b505050505050565b61069260408051606080820183525f808352835160c08101855281815260208181018390529481018290529182018190526080820181905260a0820152909182019081526020015f81525090565b60408051606080820183528482525f85815260046020818152858320865160c08101885281546001600160a01b031681526001820154818401526002820154818901526003820154958101959095529091015460ff80821660808601526101009091041660a0840152808401929092528581526005909152829020909182019061071b906112d1565b905292915050565b60408051808201909152606080825260208201525f82815260056020526040902061074d906112be565b8082525167ffffffffffffffff81111561076957610769611c72565b604051908082528060200260200182016040528015610792578160200160208202803683370190505b5060208201525f5b81515181101561082c575f60075f845f015184815181106107bd576107bd611efb565b60209081029190910181015182528101919091526040015f20600101546001600160a01b03169050801561082357808360200151838151811061080257610802611efb565b60200260200101906001600160a01b031690816001600160a01b0316815250505b5060010161079a565b50919050565b5f6060805f805f60606108436112e0565b61084b61130c565b604080515f808252602082019092527f0f000000000000000000000000000000000000000000000000000000000000009b939a50919850469750309650945092509050565b335f808061089d85611339565b604080518082018252895181526001600160a01b0389811660208084018281525f89815260078352868120955186559051600190950180547fffffffffffffffffffffffff000000000000000000000000000000000000000016959094169490941790925582526003905220929550909350915061091b9084611724565b508060ff165f036109aa5760405163a9059cbb60e01b81526001600160a01b03851660048201526024810183905273c4bf5cbdabe595361438f8c6a187bdc330539c609063a9059cbb906044016020604051808303815f875af1158015610984573d5f803e3d5ffd5b505050506040513d601f19601f820116820180604052508101906109a89190611f55565b505b84516040518381526001600160a01b0386169185917fdbaf21cad9ab5b3678c5ec10ae109afd74acb5208ff47f562d77eb09183eeb039060200160405180910390a45050505050565b5f8080610a0d610a0836869003860186611cd0565b611339565b9250925092509193909250565b610a8360408051608080820183525f8083526020808401829052838501829052845160608181018752838252865160c08101885284815280840185905280880185905280820185905294850184905260a085018490529181019390935293820152909182015290565b5f82815260076020908152604091829020825180840190935280548352600101546001600160a01b039081168383019081528585525116908301528051610ac990610644565b60608301819052604081015160209182015190910151610ae99190611f36565b604083015250919050565b851580610b015750428511155b80610b0f575060018460ff16115b80610b18575081155b15610b4f576040517faf61069300000000000000000000000000000000000000000000000000000000815260040160405180910390fd5b3373c4bf5cbdabe595361438f8c6a187bdc330539c6063d505accf82308a8a610b7b6020890189611f74565b604080517fffffffff0000000000000000000000000000000000000000000000000000000060e089901b1681526001600160a01b0396871660048201529590941660248601526044850192909252606484015260ff166084830152602086013560a483015285013560c482015260e4015f604051808303815f87803b158015610c02575f80fd5b505af1158015610c14573d5f803e3d5ffd5b50506040517f23b872dd0000000000000000000000000000000000000000000000000000000081526001600160a01b0384166004820152306024820152604481018a905273c4bf5cbdabe595361438f8c6a187bdc330539c6092506323b872dd91506064016020604051808303815f875af1158015610c95573d5f803e3d5ffd5b505050506040513d601f19601f82011682018060405250810190610cb99190611f55565b506001600160a01b0381165f9081526002602090815260408083205490516bffffffffffffffffffffffff19606086901b1692810192909252603482018190529190605401604051602081830303815290604052805190602001209050816001610d239190611f23565b60025f856001600160a01b03166001600160a01b031681526020019081526020015f205f01819055506040518060c00160405280846001600160a01b031681526020018a81526020014281526020018981526020018860ff1681526020015f60ff1681525060045f8381526020019081526020015f205f820151815f015f6101000a8154816001600160a01b0302191690836001600160a01b031602179055506020820151816001015560408201518160020155606082015181600301556080820151816004015f6101000a81548160ff021916908360ff16021790555060a08201518160040160016101000a81548160ff021916908360ff1602179055509050505f60055f8381526020019081526020015f2090505f5b86811015610e7757610e6e888883818110610e5857610e58611efb565b905060200201358361172490919063ffffffff16565b50600101610e3b565b50604080518b8152602081018890526001600160a01b0386169184917fca21890c07259113ea29255a6bdb21ca5e46cdf0bc0222904d499136922dd030910160405180910390a350505050505050505050565b5f81815260076020908152604091829020825180840190935280548352600101546001600160a01b03169082018190523391908214610f1f57604051630aa881a960e11b815260048101849052602401610364565b80515f908152600460208181526040808420815160c08101835281546001600160a01b03168152600182015493810193909352600281015491830191909152600381015460608301529091015460ff808216608084018190526101009092041660a0830152909103610fa757604051630aa881a960e11b815260048101859052602401610364565b81515f908152600560205260408120610fbf906112d1565b8260200151610fce9190611f36565b6001600160a01b0385165f9081526002602090815260408083208984526001019091528120546060850151929350914211156110155761100e8284611f8d565b9050611064565b5f8460400151426110269190611f8d565b90505f8560400151866060015161103d9190611f8d565b9050838161104b8488611fa0565b6110559190611f36565b61105f9190611f8d565b925050505b8015611170576001600160a01b0386165f9081526002602090815260408083208a84526001019091528120805483929061109f908490611f23565b909155505060405163a9059cbb60e01b81526001600160a01b03871660048201526024810182905273c4bf5cbdabe595361438f8c6a187bdc330539c609063a9059cbb906044016020604051808303815f875af1158015611102573d5f803e3d5ffd5b505050506040513d601f19601f820116820180604052508101906111269190611f55565b50856001600160a01b0316877f76c3b0b8c255c4c2c7372a000da81ba4dc24fe01e03ed15aad8ccd9bd04792628360405161116391815260200190565b60405180910390a361118c565b604051630aa881a960e11b815260048101889052602401610364565b50505050505050565b5f306001600160a01b037f0000000000000000000000000000000000000000000000000000000000000000161480156111ed57507f000000000000000000000000000000000000000000000000000000000000000046145b1561121757507f000000000000000000000000000000000000000000000000000000000000000090565b6103eb604080517f8b73c3c69bb8fe3d512ecc4cf759cc79239f7b179b0ffacaa9a75d522b39400f60208201527f0000000000000000000000000000000000000000000000000000000000000000918101919091527f000000000000000000000000000000000000000000000000000000000000000060608201524660808201523060a08201525f9060c00160405160208183030381529060405280519060200120905090565b60605f6112ca8361172f565b9392505050565b5f6112da825490565b92915050565b60606103eb7f00000000000000000000000000000000000000000000000000000000000000005f611788565b60606103eb7f00000000000000000000000000000000000000000000000000000000000000006001611788565b5f80808033602080870151604080890151905161137c94930160609390931b6bffffffffffffffffffffffff191683526014830191909152603482015260540190565b60408051601f1981840301815291815281516020928301205f81815260069093529120549091508015806113b957506113b6603c82611f23565b42105b156113f3576040517f4f31f9ad00000000000000000000000000000000000000000000000000000000815260048101839052602401610364565b60208087015160408089015190516114149301918252602082015260400190565b60408051601f19818403018152918152815160209283012088515f908152600590935291209095506114468187611831565b6114895786516040517f3e0266b8000000000000000000000000000000000000000000000000000000008152600481019190915260248101879052604401610364565b5f86815260076020526040902054156114db5786516040517fac77c46c000000000000000000000000000000000000000000000000000000008152600481019190915260248101879052604401610364565b86515f90815260046020818152604092839020835160c08101855281546001600160a01b03168152600182015492810192909252600281015493820193909352600383015460608201819052929091015460ff80821660808401526101009091041660a08201529042111561159357875160608201516040517fdf9c7e250000000000000000000000000000000000000000000000000000000081526004810192909252602482018990526044820152606401610364565b5f60016116227fc9569bc389629bd63269af73dda8915116ce58858c48577079dbd2a8050711fd845f015185602001518d5f01518e602001516040516020016116079594939291909485526001600160a01b0393909316602085015260408401919091526060830152608082015260a00190565b60405160208183030381529060405280519060200120611848565b60608b0151805160208083015160409384015184515f815290920193849052611667949390919093845260ff9290921660208401526040830152606082015260800190565b6020604051602081039080840390855afa158015611687573d5f803e3d5ffd5b505050602060405103519050815f01516001600160a01b0316816001600160a01b0316146116f75781516040517f7ba5ffb50000000000000000000000000000000000000000000000000000000081526001600160a01b0391821660048201529082166024820152604401610364565b611700836112d1565b826020015161170f9190611f36565b96508160800151955050505050509193909250565b5f6112ca838361188f565b6060815f0180548060200260200160405190810160405280929190818152602001828054801561177c57602002820191905f5260205f20905b815481526020019060010190808311611768575b50505050509050919050565b606060ff83146117a25761179b836118db565b90506112da565b8180546117ae90611fb7565b80601f01602080910402602001604051908101604052809291908181526020018280546117da90611fb7565b80156118255780601f106117fc57610100808354040283529160200191611825565b820191905f5260205f20905b81548152906001019060200180831161180857829003601f168201915b505050505090506112da565b5f81815260018301602052604081205415156112ca565b5f6112da611854611195565b836040517f19010000000000000000000000000000000000000000000000000000000000008152600281019290925260228201526042902090565b5f8181526001830160205260408120546118d457508154600181810184555f8481526020808220909301849055845484825282860190935260409020919091556112da565b505f6112da565b60605f6118e783611918565b6040805160208082528183019092529192505f91906020820181803683375050509182525060208101929092525090565b5f60ff8216601f8111156112da576040517fb3512b0c00000000000000000000000000000000000000000000000000000000815260040160405180910390fd5b6040805160a080820183525f828401818152845160c08101865282815260208101839052948501829052606085810183905260808087018490529386018390528401949094529082015290819081526020016119c7604051806040016040528060608152602001606081525090565b905290565b5f602082840312156119dc575f80fd5b5035919050565b8051604080845281519084018190525f91602091908201906060860190845b81811015611a1e57835183529284019291840191600101611a02565b50508483015186820387850152805180835290840192505f918401905b80831015611a645783516001600160a01b03168252928401926001929092019190840190611a3b565b509695505050505050565b60208152611adc6020820183518051825260208101516001600160a01b03815116602084015260208101516040840152604081015160608401526060810151608084015260ff60808201511660a084015260ff60a08201511660c084015250604081015160e08301525050565b6020820151610120828101525f90611af86101408401826119e3565b949350505050565b61010081016112da82848051825260208101516001600160a01b03815116602084015260208101516040840152604081015160608401526060810151608084015260ff60808201511660a084015260ff60a08201511660c084015250604081015160e08301525050565b602081525f6112ca60208301846119e3565b5f81518084525f5b81811015611ba057602081850181015186830182015201611b84565b505f602082860101526020601f19601f83011685010191505092915050565b7fff00000000000000000000000000000000000000000000000000000000000000881681525f602060e06020840152611bfb60e084018a611b7c565b8381036040850152611c0d818a611b7c565b606085018990526001600160a01b038816608086015260a0850187905284810360c0860152855180825260208088019350909101905f5b81811015611c6057835183529284019291840191600101611c44565b50909c9b505050505050505050505050565b634e487b7160e01b5f52604160045260245ffd5b6040516060810167ffffffffffffffff81118282101715611cb557634e487b7160e01b5f52604160045260245ffd5b60405290565b803560ff81168114611ccb575f80fd5b919050565b5f81830360c0811215611ce1575f80fd5b6040516080810181811067ffffffffffffffff82111715611d1057634e487b7160e01b5f52604160045260245ffd5b80604052508335815260208401356020820152604084013560408201526060605f1983011215611d3e575f80fd5b611d46611c86565b9150611d5460608501611cbb565b82526080840135602083015260a0909301356040820152606083015250919050565b5f60c0828403121561082c575f80fd5b5f60208284031215611d96575f80fd5b81356001600160a01b03811681146112ca575f80fd5b5f61016082019050825182526001600160a01b036020840151166020830152604083015160408301526060830151611e4260608401828051825260208101516001600160a01b03815116602084015260208101516040840152604081015160608401526060810151608084015260ff60808201511660a084015260ff60a08201511660c084015250604081015160e08301525050565b5092915050565b5f6060828403121561082c575f80fd5b5f805f805f8060e08789031215611e6e575f80fd5b8635955060208701359450611e8560408801611cbb565b9350606087013567ffffffffffffffff80821115611ea1575f80fd5b818901915089601f830112611eb4575f80fd5b813581811115611ec2575f80fd5b8a60208260051b8501011115611ed6575f80fd5b602083019550809450505050611eef8860808901611e49565b90509295509295509295565b634e487b7160e01b5f52603260045260245ffd5b634e487b7160e01b5f52601160045260245ffd5b808201808211156112da576112da611f0f565b5f82611f5057634e487b7160e01b5f52601260045260245ffd5b500490565b5f60208284031215611f65575f80fd5b815180151581146112ca575f80fd5b5f60208284031215611f84575f80fd5b6112ca82611cbb565b818103818111156112da576112da611f0f565b80820281158282048414176112da576112da611f0f565b600181811c90821680611fcb57607f821691505b60208210810361082c57634e487b7160e01b5f52602260045260245ffdfea2646970667358221220b6db007d7a0c6e3e4f0efa3d0a451b74ed6e9d8141c1deba57beb3b222d2561464736f6c63430008170033",
  "linkReferences": {},
  "deployedLinkReferences": {}
}